:020000040800F2
:10000000002800202D100008BD0F0008C30F0008B5
:10001000C90F0008CF0F0008D50F0008000000002E
:10002000000000000000000000000000DB0F0008DE
:10003000E70F000800000000F30F0008FF0F0008A2
:10004000751000087510000875100008751000087C
:10005000751000087510000875100008751000086C
:10006000751000087510000875100008751000085C
:10007000751000087510000875100008751000084C
:10008000751000087510000875100008751000083C
:10009000751000087510000875100008751000082C
:1000A000751000087510000875100008751000081C
:1000B0000D10000875100008000000007510000801
:1000C0007510000800000000000000007510000816
:1000D0000000000075100008751000080000000006
:1000E0007510000875100008751000080000000069
:1000F0000000000000000000000000000000000000
:0C01000000000000000000005FF808F1A3
:10010C0010B5054C237833B9044B13B10448AFF345
:10011C0000800123237010BD4C0000200000000063
:10012C009C26000808B5034B1BB103490348AFF3E9
:10013C00008008BD00000000500000209C26000834
:10014C0080B400AF064B1B68012B04D1044B00227A
:10015C001A60012300E000231846BD4680BC70479E
:10016C006800002080B483B000AF78607B68022BFD
:10017C0011D07B68022B12DC7B68002B03D07B68D0
:10018C00012B04D00BE0094B01221A6008E0084B4C
:10019C0001221A6004E0074B01221A6000E000BF44
:1001AC0000BF0C37BD4680BC704700BF6800002004
:1001BC006C0000207000002080B582B000AF0023DE
:1001CC007B6088E0484A7B6852F8232047497B686B
:1001DC0041F82320464A7B6852F8232042497B6829
:1001EC0041F823207B68002B0BD14FF40071414860
:1001FC0001F026FA034619463D4A7B6842F8231063
:10020C001CE07B68012B0BD14FF48061394801F065
:10021C0017FA03461946364A7B6842F823100DE05C
:10022C007B68022B0AD14FF40061324801F008FAC6
:10023C00034619462E4A7B6842F823102B4A7B68EA
:10024C0052F8232028497B6851F823309A423FD139
:10025C00254A7B6852F8232025497B6851F82330C6
:10026C009A4235D1244A7B6852F8232020497B6876
:10027C0051F823309A4217D01D4A7B6852F823203C
:10028C001D497B6841F82320194A7B6852F82330BA
:10029C00002B1DD17868FFF765FF184A7B684FF477
:1002AC00967142F8231013E0144A7B6852F82330FD
:1002BC005A1E12497B6841F82320104A7B6852F879
:1002CC002330002B04D10C4A7B68012142F8231007
:1002DC007B6801337B607B68022B7FF773AF00BFB9
:1002EC0000BF0837BD4680BD0C0000200000002078
:1002FC0018000020000C01402400002030000020D9
:10030C0080B400AF524B1968524B83FB01239A10F7
:10031C00CB17D21A13469B0013445B00CA1A4E4BE0
:10032C001A604B4B1B684B4A82FB03129210DB1773
:10033C00D31A494A5360494B1968464B83FB012336
:10034C009A10CB17D21A13469B0013445B00CA1A9F
:10035C00414B9A60414B1B683E4A82FB0312921040
:10036C00DB17D31A3C4AD3603D4B1B683A4A1361E6
:10037C003B4B1B68013B032B5FD801A252F823F0C7
:10038C009D030008AB030008DF03000813040008FA
:10039C00314B00225A61304B00229A6154E0314BB0
:1003AC001B682C4A82FB03129210DB17D31A2A4AC1
:1003BC0053612C4B1968274B83FB01239A10CB17E5
:1003CC00D21A13469B0013445B00CA1A224B9A6143
:1003DC003AE0254B1B681F4A82FB03129210DB1775
:1003EC00D31A1D4A5361204B19681A4B83FB012306
:1003FC009A10CB17D21A13469B0013445B00CA1AEF
:10040C00154B9A6120E0194B1B68124A82FB0312B0
:10041C009210DB17D31A104A5361144B19680D4B09
:10042C0083FB01239A10CB17D21A13469B0013445B
:10043C005B00CA1A084B9A6106E0074B00225A610E
:10044C00054B00229A6100BF00BFBD4680BC7047BF
:10045C009800002067666666740000209C000020EF
:10046C00A0000020A4000020AC000020A800002068
:10047C0080B582B000AF78607B68062B00F24D81AE
:10048C0001A252F823F000BFB10400080B050008CC
:10049C0065050008BF05000819060008730600086A
:1004AC00CD060008002220219E4801F0E0F8012230
:1004BC0040219C4801F0DBF801228021994801F091
:1004CC00D6F801224FF48071964801F0D0F8012241
:1004DC004FF40071934801F0CAF801224FF48041A7
:1004EC00914801F0C4F801224FF400418E4801F00C
:1004FC00BEF88E4B1B68184600F01AF90EE101226B
:10050C002021884801F0B3F800224021854801F0F1
:10051C00AEF801228021834801F0A9F801224FF4A2
:10052C008071804801F0A3F801224FF400717D48DE
:10053C0001F09DF801224FF480417B4801F097F8BF
:10054C0001224FF40041784801F091F8774B5B6839
:10055C00184600F0EDF8E1E001222021714801F08D
:10056C0086F8012240216F4801F081F80022802199
:10057C006C4801F07CF801224FF48071694801F05D
:10058C0076F801224FF40071664801F070F80122F0
:10059C004FF48041644801F06AF801224FF40041A5
:1005AC00614801F064F8614B9B68184600F0C0F894
:1005BC00B4E0012220215B4801F059F801224021CE
:1005CC00584801F054F801228021564801F04FF8A8
:1005DC0000224FF48071534801F049F801224FF486
:1005EC000071504801F043F801224FF480414E480D
:1005FC0001F03DF801224FF400414B4801F037F86F
:10060C004A4BDB68184600F093F887E00122202162
:10061C00444801F02CF801224021424801F027F80F
:10062C00012280213F4801F022F801224FF4807111
:10063C003C4801F01CF800224FF40071394801F0DD
:10064C0016F801224FF48041374801F010F80122CE
:10065C004FF40041344801F00AF8344B1B6918463A
:10066C0000F066F85AE0012220212E4800F0FFFF2E
:10067C00012240212B4800F0FAFF01228021294859
:10068C0000F0F5FF01224FF48071264800F0EFFFD7
:10069C0001224FF40071234800F0E9FF00224FF4CF
:1006AC008041214800F0E3FF01224FF400411E4835
:1006BC0000F0DDFF1D4B5B69184600F039F82DE0AA
:1006CC0001222021174800F0D2FF012240211548B9
:1006DC0000F0CDFF01228021124800F0C8FF01225A
:1006EC004FF480710F4800F0C2FF01224FF40071EB
:1006FC000C4800F0BCFF01224FF480410A4800F086
:10070C00B6FF00224FF40041074800F0B0FF074B42
:10071C009B69184600F00CF800E000BF00BF0837DA
:10072C00BD4680BD00080140000C01407400002053
:10073C0080B582B000AF78607B68092B00F28081B5
:10074C0001A252F823F000BF7D070008C50700087E
:10075C000D080008550800089D080008E508000869
:10076C002D09000875090008BD090008050A0008D4
:10077C0000220121C64800F07AFF00220221C44861
:10078C0000F075FF00220421C14800F070FF002228
:10079C000821BF4800F06BFF00221021BC4800F07C
:1007AC0066FF00222021BA4800F061FF012240219F
:1007BC00B74800F05CFF67E101220121B44800F06A
:1007CC0056FF00220221B24800F051FF0022042102
:1007DC00AF4800F04CFF01220821AD4800F047FF64
:1007EC0001221021AA4800F042FF01222021A84832
:1007FC0000F03DFF01224021A54800F038FF43E105
:10080C0000220121A24800F032FF00220221A04860
:10081C0000F02DFF012204219D4800F028FF00224A
:10082C0008219B4800F023FF00221021984800F07B
:10083C001EFF01222021964800F019FF00224021C2
:10084C00934800F014FF1FE100220121904800F0B2
:10085C000EFF002202218E4800F009FF0022042125
:10086C008B4800F004FF00220821894800F0FFFEAD
:10087C0001221021864800F0FAFE01222021844832
:10088C0000F0F5FE00224021814800F0F0FEFBE074
:10089C00012201217E4800F0EAFE002202217C4860
:1008AC0000F0E5FE00220421794800F0E0FE012270
:1008BC000821774800F0DBFE01221021744800F07B
:1008CC00D6FE00222021724800F0D1FE00224021E9
:1008DC006F4800F0CCFED7E0002201216C4800F0FC
:1008EC00C6FE012202216A4800F0C1FE002204214A
:1008FC00674800F0BCFE00220821654800F0B7FEF6
:10090C0001221021624800F0B2FE00222021604832
:10091C0000F0ADFE002240215D4800F0A8FEB3E0DF
:10092C00002201215A4800F0A2FE0122022158485F
:10093C0000F09DFE00220421554800F098FE002294
:10094C000821534800F093FE00221021504800F07B
:10095C008EFE002220214E4800F089FE002240210C
:10096C004B4800F084FE8FE000220121484800F043
:10097C007EFE00220221464800F079FE002204216E
:10098C00434800F074FE01220821414800F06FFE3C
:10099C00012210213E4800F06AFE012220213C4831
:1009AC0000F065FE01224021394800F060FE6BE04A
:1009BC0000220121364800F05AFE00220221344860
:1009CC0000F055FE00220421314800F050FE0022B8
:1009DC0008212F4800F04BFE002210212C4800F07B
:1009EC0046FE002220212A4800F041FE0022402130
:1009FC00274800F03CFE47E000220121244800F08B
:100A0C0036FE00220221224800F031FE0022042191
:100A1C001F4800F02CFE002208211D4800F027FE84
:100A2C00012210211A4800F022FE00222021184831
:100A3C0000F01DFE00224021154800F018FE23E0B6
:100A4C0000220121124800F012FE0022022110485F
:100A5C0000F00DFE002204210D4800F008FE0022DB
:100A6C0008210B4800F003FE00221021084800F07A
:100A7C00FEFD00222021064800F0F9FD0022402155
:100A8C00034800F0F4FD00BF00BF0837BD4680BD31
:100A9C00000C014080B500AF314B1B68012B5CD1C1
:100AAC00304B1B68002B09D18C2000F0E3F901209E
:100ABC00FFF7DEFC2B4B01221A604EE0294B1B6822
:100ACC00012B09D18C2000F0D5F90220FFF7D0FCC6
:100ADC00244B02221A6040E0224B1B68022B09D1E6
:100AEC008C2000F0C7F90320FFF7C2FC1D4B03223A
:100AFC001A6032E01B4B1B68032B09D18C2000F0D1
:100B0C00B9F90420FFF7B4FC164B04221A6024E058
:100B1C00144B1B68042B09D18C2000F0ABF9052079
:100B2C00FFF7A6FC0F4B05221A6016E00D4B1B6855
:100B3C00052B09D18C2000F09DF90620FFF798FCBD
:100B4C00084B06221A6008E08C2000F093F9002074
:100B5C00FFF78EFC034B00221A6000BF80BD00BF64
:100B6C00BC0000209000002080B500AF0B4B1B6830
:100B7C00012B0DD10A4B01221A60FFF7C1FBFFF7C5
:100B8C00DFFA0346012B05D1044B02221A6001E067
:100B9C0000BF00E000BF00BF80BD00BF940000207C
:100BAC00A000002080B500AF244B1B68042B3BD861
:100BBC0001A252F823F000BFD90B0008350C000835
:100BCC00E10B0008FD0B0008190C00081B4B01225F
:100BDC001A6030E01A4B02221A60FFF791FBFFF704
:100BEC00AFFA0346012B21D1144B03221A601DE0EE
:100BFC00134B03221A60FFF783FBFFF7A1FA03469E
:100C0C00012B15D10D4B04221A6011E00C4B042260
:100C1C001A60FFF775FBFFF793FA0346012B09D116
:100C2C00064B01221A6005E000BF04E000BF02E0A1
:100C3C0000BF00E000BF00BF80BD00BF94000020DB
:100C4C00A000002080B500AF00F010FA00F012F800
:100C5C0000F098F800F04AF8054801F059F9FA202C
:100C6C0000F008F9FFF780FFFFF79CFFFAE700BFE1
:100C7C00C000002080B590B000AF07F11803282207
:100C8C000021184601F0FCFC3B1D00221A605A6042
:100C9C009A60DA601A610223BB610123BB621023E4
:100CAC00FB6200237B6307F11803184600F0F8FC85
:100CBC000346002B01D000F0D7F80F237B600023F4
:100CCC00BB600023FB6000233B6100237B613B1D69
:100CDC000021184600F064FF0346002B01D000F001
:100CEC00C3F800BF4037BD4680BD000080B586B05C
:100CFC0000AF07F1080300221A605A609A60DA60AC
:100D0C003B4600221A605A601D4B4FF080421A601D
:100D1C001B4B41F63F725A60194B00229A60184BDC
:100D2C000922DA60164B00221A61154B00229A61D7
:100D3C00134801F09DF80346002B01D000F094F805
:100D4C004FF48053BB6007F1080319460C4801F0BF
:100D5C0033FA0346002B01D000F086F800233B60E9
:100D6C0000237B603B461946054801F0FBFB03461C
:100D7C00002B01D000F078F800BF1837BD4680BDBD
:100D8C00C000002080B586B000AF07F10803002238
:100D9C001A605A609A60DA60294B9B69284A43F0C2
:100DAC0004039361264B9B6903F004037B607B680F
:100DBC00234B9B69224A43F008039361204B9B69A8
:100DCC0003F008033B603B6800224FF6F0711D48AE
:100DDC0000F04DFC00224CF27F011B4800F047FC58
:100DEC004FF6F073BB600123FB6000233B610223D1
:100DFC007B6107F108031946124800F0A7FA4CF280
:100E0C007F03BB600123FB6000233B6102237B61FA
:100E1C0007F1080319460C4800F098FA4FF4606388
:100E2C00BB600023FB6001233B6107F108031946FB
:100E3C00054800F08BFA00BF1837BD4680BD00BFD7
:100E4C000010024000080140000C014080B582B047
:100E5C0000AF786000F028F8FFF7AEF9FFF71AFE44
:100E6C0000BF0837BD4680BD80B400AF72B600BF6E
:100E7C00FEE7000080B483B000AF7860074B1B68BE
:100E8C007A6892FBF3F3064A1360064B00221A6051
:100E9C0000BF0C37BD4680BC704700BF3C00002033
:100EAC00B8000020BC00002080B400AF114B1B68C0
:100EBC00002B0BDD0F4B1B68013B0E4A13600D4BD7
:100ECC001B68002B02D10C4B01221A600B4B1B68C8
:100EDC00002B0BDD094B1B68013B084A1360074BC9
:100EEC001B68002B02D1064B01221A6000BFBD46C5
:100EFC0080BC7047B0000020B4000020B800002077
:100F0C00BC00002080B485B000AF154B9B69144A1F
:100F1C0043F001039361124B9B6903F00103BB6027
:100F2C00BB680F4BDB690E4A43F08053D3610C4B0B
:100F3C00DB6903F080537B607B680A4B5B68FB606A
:100F4C00FB6823F0E063FB60FB6843F08063FB60AD
:100F5C00044AFB68536000BF1437BD4680BC704721
:100F6C00001002400000014080B584B000AF7860F2
:100F7C007B681B68B3F1804F13D10C4BDB690B4AB8
:100F8C0043F00103D361094BDB6903F00103FB6000
:100F9C00FB68002200211C2000F0A1F91C2000F0AD
:100FAC00BAF900BF1037BD4680BD00BF001002402B
:100FBC0080B400AFFEE780B400AFFEE780B400AFB2
:100FCC00FEE780B400AFFEE780B400AFFEE780B46C
:100FDC0000AF00BFBD4680BC704780B400AF00BFFF
:100FEC00BD4680BC704780B400AF00BFBD4680BC1E
:100FFC00704780B500AF00F07FF800BF80BD0000E7
:10100C0080B500AF024800F0CFFF00BF80BD00BF2D
:10101C00C000002080B400AF00BFBD4680BC70474C
:10102C000C480D490D4A002302E0D458C450043337
:10103C00C4188C42F9D30A4A0A4C002301E013600D
:10104C000432A242FBD3FFF7E5FF01F0F5FAFFF7FC
:10105C00F9FD7047000000204C000020DC26000841
:10106C004C0000200C010020FEE7000080B500AF12
:10107C00084B1B68074A43F010031360032000F071
:10108C0023F90F2000F008F8FFF73CFF0023184667
:10109C0080BD00BF0020024080B582B000AF7860F8
:1010AC00124B1A68124B1B7819464FF47A73B3FB28
:1010BC00F1F3B2FBF3F3184600F03BF90346002BB7
:1010CC0001D001230EE07B680F2B0AD8002279682F
:1010DC004FF0FF3000F003F9064A7B6813600023E1
:1010EC0000E0012318460837BD4680BD40000020B3
:1010FC00480000204400002080B400AF054B1B7852
:10110C001A46054B1B681344034A136000BFBD46C7
:10111C0080BC7047480000200801002080B400AF5C
:10112C00024B1B681846BD4680BC70470801002066
:10113C0080B485B000AF78607B6803F00703FB6078
:10114C000C4BDB68BB60BA684FF6FF031340BB6007
:10115C00FB681A02BB68134343F0BF6343F40033CC
:10116C00BB60044ABB68D36000BF1437BD4680BC6B
:10117C00704700BF00ED00E080B400AF044BDB68AB
:10118C001B0A03F007031846BD4680BC704700BF1E
:10119C0000ED00E080B483B000AF0346FB7197F91B
:1011AC000730002B0BDBFB7903F01F02064997F984
:1011BC0007305B09012000FA02F241F8232000BF3E
:1011CC000C37BD4680BC704700E100E080B483B0B2
:1011DC0000AF03463960FB7197F90730002B0ADB2F
:1011EC003B68DAB20C4997F907301201D2B20B44C2
:1011FC0083F800230AE03B68DAB20849FB7903F074
:10120C000F03043B1201D2B20B441A7600BF0C3709
:10121C00BD4680BC704700BF00E100E000ED00E07F
:10122C0080B489B000AFF860B9607A60FB6803F0F5
:10123C000703FB61FB69C3F10703042B28BF0423DD
:10124C00BB61FB690433062B02D9FB69033B00E04D
:10125C0000237B614FF0FF32BB6902FA03F3DA43E0
:10126C00BB681A407B699A404FF0FF317B6901FAE9
:10127C0003F3D9437B680B40134318462437BD4610
:10128C0080BC704780B582B000AF78607B68013B52
:10129C00B3F1807F01D301230FE00A4A7B68013B45
:1012AC0053600F214FF0FF30FFF790FF054B0022EA
:1012BC009A60044B07221A60002318460837BD4673
:1012CC0080BD00BF10E000E080B582B000AF786058
:1012DC007868FFF72DFF00BF0837BD4680BD80B58D
:1012EC0086B000AF0346B9607A60FB7300237B6164
:1012FC00FFF742FF78617A68B9687869FFF790FF69
:10130C00024697F90F3011461846FFF75FFF00BFF2
:10131C001837BD4680BD80B582B000AF0346FB7167
:10132C0097F907301846FFF735FF00BF0837BD4661
:10133C0080BD80B582B000AF78607868FFF7A2FFFF
:10134C00034618460837BD4680BD000080B48BB0FC
:10135C0000AF7860396000237B6200233B6248E178
:10136C0001227B6A02FA03F3FB613B681B68FA6992
:10137C001340BB61BA69FB699A4240F037813B6804
:10138C005B68A34A93425ED0A14A934275D8A14AA6
:10139C00934258D09F4A93426FD89F4A934252D05F
:1013AC009D4A934269D89D4A93424CD09B4A9342A2
:1013BC0063D89B4A934246D0994A93425DD8122BEC
:1013CC002AD8122B59D801A252F823F05314000832
:1013DC002D1400083F14000881140008871400081D
:1013EC008714000887140008871400088714000865
:1013FC008714000887140008871400088714000855
:10140C008714000887140008871400088714000844
:10141C003514000849140008824A934213D02CE07A
:10142C003B68DB683B6229E03B68DB6804333B626A
:10143C0024E03B68DB6808333B621FE03B68DB68F9
:10144C000C333B621AE03B689B68002B02D10423EF
:10145C003B6213E03B689B68012B05D108233B6280
:10146C007B68FA691A6109E008233B627B68FA69B8
:10147C005A6103E000233B6200E000BFBB69FF2B15
:10148C0001D87B6801E07B6804337B61BB69FF2B6F
:10149C0002D87B6A9B0002E07B6A083B9B003B61A5
:1014AC007B691A680F213B6901FA03F3DB431A408D
:1014BC00396A3B6901FA03F31A437B691A603B688A
:1014CC005B6803F08053002B00F09080564B9B69B7
:1014DC00554A43F001039361534B9B6903F001039D
:1014EC00BB60BB68514A7B6A9B08023352F82330BD
:1014FC00FB607B6A03F003039B000F2202FA03F3E9
:10150C00DB43FA681340FB607B68494A93420DD079
:10151C007B68484A934207D07B68474A934201D183
:10152C00022304E0032302E0012300E000237A6A93
:10153C0002F0030292009340FA681343FB603B49AC
:10154C007B6A9B080233FA6841F823203B685B688E
:10155C0003F48033002B06D0384B1A683749BB692B
:10156C0013430B6006E0354B1A68BB69DB43334908
:10157C0013400B603B685B6803F40033002B06D010
:10158C002E4B5A682D49BB6913434B6006E02B4B1D
:10159C005A68BB69DB43294913404B603B685B6865
:1015AC0003F48013002B06D0244B9A682349BB69A3
:1015BC0013438B6006E0214B9A68BB69DB431F49E0
:1015CC0013408B603B685B6803F40013002B06D060
:1015DC001A4BDA681949BB691343CB6006E0174B09
:1015EC00DA68BB69DB4315491340CB607B6A013376
:1015FC007B623B681A687B6A22FA03F3002B7FF448
:10160C00AFAE00BF00BF2C37BD4680BC704700BFDB
:10161C0000003210000031100000221000002110D8
:10162C0000001210000011100010024000000140D8
:10163C0000080140000C0140001001400004014072
:10164C0080B485B000AF78600B467B807B689A686D
:10165C007B881340002B02D00123FB7301E0002395
:10166C00FB73FB7B18461437BD4680BC704780B4B7
:10167C0083B000AF78600B467B8013467B707B7821
:10168C00002B03D07A887B681A6103E07B881A04EC
:10169C007B681A6100BF0C37BD4680BC70470000E8
:1016AC0080B586B000AF78607B68002B01D1012338
:1016BC006CE27B681B6803F00103002B00F0878051
:1016CC00924B5B6803F00C03042B0CD08F4B5B68C4
:1016DC0003F00C03082B12D18C4B5B6803F48033A2
:1016EC00B3F5803F0BD1894B1B6803F40033002BFF
:1016FC006CD07B685B68002B68D1012346E27B6869
:10170C005B68B3F5803F06D1804B1B687F4A43F47E
:10171C00803313602EE07B685B68002B0CD17B4B15
:10172C001B687A4A23F480331360784B1B68774A22
:10173C0023F4802313601DE07B685B68B3F5A02F56
:10174C000CD1724B1B68714A43F4802313606F4BAE
:10175C001B686E4A43F4803313600BE06B4B1B68C1
:10176C006A4A23F480331360684B1B68674A23F47E
:10177C00802313607B685B68002B13D0FFF7CEFCD3
:10178C00386108E0FFF7CAFC02463B69D31A642BA8
:10179C0001D90323FAE15D4B1B6803F40033002BE2
:1017AC00F0D014E0FFF7BAFC386108E0FFF7B6FCA4
:1017BC0002463B69D31A642B01D90323E6E1534B50
:1017CC001B6803F40033002BF0D100E000BF7B68F2
:1017DC001B6803F00203002B63D04C4B5B6803F0D7
:1017EC000C03002B0BD0494B5B6803F00C03082B4C
:1017FC001CD1464B5B6803F48033002B16D1434B52
:10180C001B6803F00203002B05D07B681B69012BBE
:10181C0001D00123BAE13D4B1B6823F0F8027B6831
:10182C005B69DB00394913430B603AE07B681B6949
:10183C00002B20D0364B01221A60FFF76FFC386169
:10184C0008E0FFF76BFC02463B69D31A022B01D967
:10185C0003239BE12D4B1B6803F00203002BF0D0FC
:10186C002A4B1B6823F0F8027B685B69DB00274975
:10187C0013430B6015E0264B00221A60FFF74EFC59
:10188C00386108E0FFF74AFC02463B69D31A022B89
:10189C0001D903237AE11D4B1B6803F00203002BD3
:1018AC00F0D17B681B6803F00803002B3AD07B68EF
:1018BC009B69002B19D0174B01221A60FFF72EFCE5
:1018CC00386108E0FFF72AFC02463B69D31A022B69
:1018DC0001D903235AE10D4B5B6A03F00203002B81
:1018EC00F0D0012000F0A6FA1CE00A4B00221A608E
:1018FC00FFF714FC38610FE0FFF710FC02463B6960
:10190C00D31A022B08D9032340E100BF0010024078
:10191C0000004242800442429E4B5B6A03F0020389
:10192C00002BE9D17B681B6803F00403002B00F04B
:10193C00A6800023FB75974BDB6903F08053002BCB
:10194C000DD1944BDB69934A43F08053D361914B97
:10195C00DB6903F08053BB60BB680123FB758E4BC6
:10196C001B6803F48073002B18D18B4B1B688A4ABD
:10197C0043F480731360FFF7D1FB386108E0FFF785
:10198C00CDFB02463B69D31A642B01D90323FDE03E
:10199C00814B1B6803F48073002BF0D07B68DB68F1
:1019AC00012B06D17B4B1B6A7A4A43F0010313626D
:1019BC002DE07B68DB68002B0CD1764B1B6A754ADB
:1019CC0023F001031362734B1B6A724A23F0040366
:1019DC0013621CE07B68DB68052B0CD16D4B1B6A1A
:1019EC006C4A43F0040313626A4B1B6A694A43F066
:1019FC00010313620BE0674B1B6A664A23F0010379
:101A0C001362644B1B6A634A23F0040313627B6802
:101A1C00DB68002B15D0FFF781FB38610AE0FFF77C
:101A2C007DFB02463B69D31A41F28832934201D9BD
:101A3C000323ABE0574B1B6A03F00203002BEED0E1
:101A4C0014E0FFF76BFB38610AE0FFF767FB024617
:101A5C003B69D31A41F28832934201D9032395E0B2
:101A6C004C4B1B6A03F00203002BEED1FB7D012BC8
:101A7C0005D1484BDB69474A23F08053D3617B681F
:101A8C00DB69002B00F08180424B5B6803F00C0398
:101A9C00082B61D07B68DB69022B46D13F4B0022BF
:101AAC001A60FFF73BFB386108E0FFF737FB024693
:101ABC003B69D31A022B01D9032367E0354B1B6812
:101ACC0003F00073002BF0D17B681B6AB3F5803FE9
:101ADC0008D1304B5B6823F400327B689B682D493E
:101AEC0013434B602B4B5B6823F474127B68196AAD
:101AFC007B685B6A0B43274913434B60274B0122DE
:101B0C001A60FFF70BFB386108E0FFF707FB024692
:101B1C003B69D31A022B01D9032337E01D4B1B68F9
:101B2C0003F00073002BF0D02FE01C4B00221A6046
:101B3C00FFF7F4FA386108E0FFF7F0FA02463B6968
:101B4C00D31A022B01D9032320E0124B1B6803F09C
:101B5C000073002BF0D118E07B68DB69012B01D1FD
:101B6C00012313E00B4B5B68FB60FB6803F48032D2
:101B7C007B681B6A9A4206D1FB6803F470127B687F
:101B8C005B6A9A4201D0012300E000231846183703
:101B9C00BD4680BD00100240007000406000424213
:101BAC0080B584B000AF786039607B68002B01D1C0
:101BBC000123D0E06A4B1B6803F007033A689A4292
:101BCC0010D9674B1B6823F0070265493B68134328
:101BDC000B60634B1B6803F007033A689A4201D011
:101BEC000123B8E07B681B6803F00203002B20D0B4
:101BFC007B681B6803F00403002B05D0594B5B6812
:101C0C00584A43F4E06353607B681B6803F0080395
:101C1C00002B05D0534B5B68524A43F4605353601E
:101C2C00504B5B6823F0F0027B689B684D49134373
:101C3C004B607B681B6803F00103002B40D07B6872
:101C4C005B68012B07D1474B1B6803F40033002B57
:101C5C0015D101237FE07B685B68022B07D1414BD8
:101C6C001B6803F00073002B09D1012373E03D4B7B
:101C7C001B6803F00203002B01D101236BE0394BED
:101C8C005B6823F003027B685B68364913434B6047
:101C9C00FFF744FAF8600AE0FFF740FA0246FB68E7
:101CAC00D31A41F28832934201D9032353E02D4BCE
:101CBC005B6803F00C027B685B689B009A42EBD17B
:101CCC00274B1B6803F007033A689A4210D2244B47
:101CDC001B6823F0070222493B6813430B60204B1F
:101CEC001B6803F007033A689A4201D0012332E0E3
:101CFC007B681B6803F00403002B08D0194B5B684E
:101D0C0023F4E0627B68DB68164913434B607B6805
:101D1C001B6803F00803002B09D0124B5B6823F4FB
:101D2C0060527B681B69DB000E4913434B6000F06B
:101D3C0021F802460B4B5B681B0903F00F030A49A1
:101D4C00CB5C22FA03F3094A1360094B1B68184653
:101D5C00FFF7A2F9002318461037BD4680BD00BF1F
:101D6C000020024000100240C42600084000002061
:101D7C004400002090B48AB000AF2A4B3C1D0FCB1E
:101D8C0084E80F0040F201233B800023FB61002319
:101D9C00BB6100237B6200237B6100233B62224BEF
:101DAC005B68FB61FB6903F00C03042B02D0082B6E
:101DBC0003D02DE01D4B3B622DE0FB699B0C03F027
:101DCC000F0307F12802134413F8243C7B61FB69D1
:101DDC0003F48033002B13D0134B5B685B0C03F0C4
:101DEC00010307F12802134413F8283CBB617B69FB
:101DFC000E4A02FB03F2BB69B2FBF3F37B6204E015
:101E0C007B690B4A02FB03F37B627B6A3B6202E059
:101E1C00064B3B6200BF3B6A18462837BD4690BC58
:101E2C00704700BFB42600080010024000127A0070
:101E3C0000093D0080B485B000AF78600A4B1B6888
:101E4C000A4AA2FB03235B0A7A6802FB03F3FB60DA
:101E5C0000BFFB685A1EFA60002BF9D100BF00BF0F
:101E6C001437BD4680BC704740000020D34D621033
:101E7C0080B582B000AF78607B68002B01D1012364
:101E8C0041E07B6893F83D30DBB2002B06D17B68D8
:101E9C00002283F83C207868FFF766F87B68022202
:101EAC0083F83D207B681A687B680433194610461A
:101EBC0000F06AFA7B68012283F846207B680122D5
:101ECC0083F83E207B68012283F83F207B68012247
:101EDC0083F840207B68012283F841207B68012233
:101EEC0083F842207B68012283F843207B6801221F
:101EFC0083F844207B68012283F845207B6801220B
:101F0C0083F83D20002318460837BD4680BD0000ED
:101F1C0080B485B000AF78607B6893F83D30DBB25D
:101F2C00012B01D0012335E07B68022283F83D2090
:101F3C007B681B68DA687B681B6842F00102DA6018
:101F4C007B681B68164A934209D07B681B68B3F107
:101F5C00804F04D07B681B68124A934211D17B6876
:101F6C001B689B6803F00703FB60FB68062B10D013
:101F7C007B681B681A687B681B6842F001021A6058
:101F8C0007E07B681B681A687B681B6842F00102DB
:101F9C001A60002318461437BD4680BC704700BF3A
:101FAC00002C01400004004080B582B000AF786086
:101FBC007B681B681B6903F00203022B22D17B6830
:101FCC001B68DB6803F00203022B1BD17B681B68C8
:101FDC006FF002021A617B6801221A777B681B681A
:101FEC009B6903F00303002B03D0786800F0B1F970
:101FFC0005E0786800F0A4F9786800F0B3F97B6824
:10200C0000221A777B681B681B6903F00403042BFE
:10201C0022D17B681B68DB6803F00403042B1BD103
:10202C007B681B686FF004021A617B6802221A77C6
:10203C007B681B689B6903F44073002B03D07868A2
:10204C0000F087F905E0786800F07AF9786800F01C
:10205C0089F97B6800221A777B681B681B6903F07F
:10206C000803082B22D17B681B68DB6803F008038C
:10207C00082B1BD17B681B686FF008021A617B6808
:10208C0004221A777B681B68DB6903F00303002BBF
:10209C0003D0786800F05DF905E0786800F050F93D
:1020AC00786800F05FF97B6800221A777B681B6800
:1020BC001B6903F01003102B22D17B681B68DB68B3
:1020CC0003F01003102B1BD17B681B686FF0100200
:1020DC001A617B6808221A777B681B68DB6903F43A
:1020EC004073002B03D0786800F033F905E0786872
:1020FC0000F026F9786800F035F97B6800221A7731
:10210C007B681B681B6903F00103012B0ED17B68F4
:10211C001B68DB6803F00103012B07D17B681B688C
:10212C006FF001021A617868FEF790FE7B681B68FD
:10213C001B6903F08003802B0ED17B681B68DB6866
:10214C0003F08003802B07D17B681B686FF0800243
:10215C001A61786800F067FA7B681B681B6903F0EA
:10216C004003402B0ED17B681B68DB6803F04003F7
:10217C00402B07D17B681B686FF040021A617868AE
:10218C0000F0F9F87B681B681B6903F02003202B17
:10219C000ED17B681B68DB6803F02003202B07D172
:1021AC007B681B686FF020021A61786800F032FAC5
:1021BC0000BF0837BD4680BD80B584B000AF7860E5
:1021CC0039607B6893F83C30012B01D10223B3E0DA
:1021DC007B68012283F83C207B68022283F83D2037
:1021EC007B681B689B68FB60FB6823F07703FB60D4
:1021FC00FB6823F47F43FB607B681B68FA689A607A
:10220C003B681B68B3F5005F3ED0B3F5005F00F28E
:10221C008780B3F5805F00F08580B3F5805F7FD851
:10222C00702B1AD0702B7BD8602B50D0602B77D8AA
:10223C00502B3CD0502B73D8402B58D0402B6FD800
:10224C00302B64D0302B6BD8202B60D0202B67D850
:10225C00002B5CD0102B5AD062E07B6818683B686E
:10226C0099683B685A683B68DB6800F05CF97B68EE
:10227C001B689B68FB60FB6843F07703FB607B6823
:10228C001B68FA689A604EE07B6818683B6899682E
:10229C003B685A683B68DB6800F045F97B681B6853
:1022AC009A687B681B6842F480429A603BE07B68CA
:1022BC0018683B6859683B68DB681A4600F0BCF844
:1022CC007B681B685021184600F013F92BE07B68E3
:1022DC0018683B6859683B68DB681A4600F0DAF806
:1022EC007B681B686021184600F003F91BE07B68D3
:1022FC0018683B6859683B68DB681A4600F09CF824
:10230C007B681B684021184600F0F3F80BE07B68F3
:10231C001A683B681B681946104600F0EAF802E0A0
:10232C0000BF00E000BF7B68012283F83D207B6882
:10233C00002283F83C20002318461037BD4680BD90
:10234C0080B483B000AF786000BF0C37BD4680BC52
:10235C00704780B483B000AF786000BF0C37BD46C7
:10236C0080BC704780B483B000AF786000BF0C377E
:10237C00BD4680BC704780B483B000AF786000BFAE
:10238C000C37BD4680BC704780B485B000AF786018
:10239C0039607B681B68FB607B68254A934207D0D9
:1023AC007B68B3F1804F03D07B68224A934208D1FB
:1023BC00FB6823F07003FB603B685B68FA681343AF
:1023CC00FB607B681A4A934207D07B68B3F1804F5D
:1023DC0003D07B68174A934208D1FB6823F44073FF
:1023EC00FB603B68DB68FA681343FB60FB6823F017
:1023FC0080023B685B691343FB607B68FA681A6078
:10240C003B689A687B68DA623B681A687B689A62F8
:10241C007B68074A934203D13B681A697B681A634D
:10242C007B6801225A6100BF1437BD4680BC7047DF
:10243C00002C01400004004080B487B000AFF8606D
:10244C00B9607A60FB681B6A7B61FB681B6A23F0CE
:10245C000102FB681A62FB689B693B613B6923F0D4
:10246C00F0033B617B681B013A6913433B617B6959
:10247C0023F00A037B617A69BB6813437B61FB68B9
:10248C003A699A61FB687A691A6200BF1C37BD46CB
:10249C0080BC704780B487B000AFF860B9607A60D8
:1024AC00FB681B6A23F01002FB681A62FB689B69CD
:1024BC007B61FB681B6A3B617B6923F470437B6126
:1024CC007B681B037A6913437B613B6923F0A00390
:1024DC003B61BB681B013A6913433B61FB687A693A
:1024EC009A61FB683A691A6200BF1C37BD4680BC12
:1024FC00704780B485B000AF786039607B689B68AA
:10250C00FB60FB6823F07003FB603A68FB681343C5
:10251C0043F00703FB607B68FA689A6000BF1437CE
:10252C00BD4680BC704780B487B000AFF860B9601E
:10253C007A603B60FB689B687B617B6923F47F431B
:10254C007B613B681A027B681A43BB6813437A6948
:10255C0013437B61FB687A699A6000BF1C37BD46E8
:10256C0080BC704780B485B000AF786039607B6800
:10257C0093F83C30012B01D1022341E07B6801220E
:10258C0083F83C207B68022283F83D207B681B6823
:10259C005B68FB607B681B689B68BB60FB6823F017
:1025AC007003FB603B681B68FA681343FB607B6835
:1025BC001B68FA685A607B681B68144A934209D0FE
:1025CC007B681B68B3F1804F04D07B681B68104A92
:1025DC0093420CD1BB6823F08003BB603B685B6803
:1025EC00BA681343BB607B681B68BA689A607B68E7
:1025FC00012283F83D207B68002283F83C200023D5
:10260C0018461437BD4680BC704700BF002C0140F3
:10261C000004004080B483B000AF786000BF0C377A
:10262C00BD4680BC704780B483B000AF786000BFFB
:10263C000C37BD4680BC704770B500260C4D0D4C58
:10264C00641BA410A64209D100F022F800260A4D02
:10265C000A4C641BA410A64205D170BD55F8043B6E
:10266C0098470136EEE755F8043B98470136F2E7F8
:10267C00D4260008D4260008D4260008D826000842
:10268C0003460244934200D1704703F8011BF9E75B
:10269C00F8B500BFF8BC08BC9E467047F8B500BF43
:0826AC00F8BC08BC9E46704713
:1026B40002030405060708090A0B0C0D0E0F10107F
:1026C40000000000000000000102030406070809DE
:0426D40031010008C8
:0426D8000D010008E8
:1026DC0001000000010000000100000001000000EA
:1026EC0001000000010000000100000001000000DA
:1026FC0001000000010000000100000001000000CA
:10270C002C0100002C0100002C0100000A0000002C
:0C271C000024F400100000000100000088
:040000050800102DB2
:00000001FF
