:020000040800F2
:100000000028002001120008911100089711000833
:100010009D110008A3110008A911000800000000AC
:10002000000000000000000000000000AF11000808
:10003000BB11000800000000C7110008D311000820
:100040004912000849120008491200084912000824
:100050004912000849120008491200084912000814
:100060004912000849120008491200084912000804
:1000700049120008491200084912000849120008F4
:1000800049120008491200084912000849120008E4
:1000900049120008491200084912000849120008D4
:1000A00049120008491200084912000849120008C4
:1000B000E111000849120008000000004912000880
:1000C000491200080000000000000000491200086A
:1000D000000000004912000849120008000000005A
:1000E00049120008491200084912000800000000E7
:1000F0000000000000000000000000000000000000
:0C01000000000000000000005FF808F1A3
:10010C0010B5054C237833B9044B13B10448AFF345
:10011C0000800123237010BD4C0000200000000063
:10012C007028000808B5034B1BB103490348AFF313
:10013C00008008BD0000000050000020702800085E
:10014C0080B400AF064B1B68012B04D1044B00227A
:10015C001A60012300E000231846BD4680BC70479E
:10016C006800002080B483B000AF78607B68022BFD
:10017C0011D07B68022B12DC7B68002B03D07B68D0
:10018C00012B04D00BE0094B01221A6008E0084B4C
:10019C0001221A6004E0074B01221A6000E000BF44
:1001AC0000BF0C37BD4680BC704700BF6800002004
:1001BC006C0000207000002080B582B000AF0023DE
:1001CC007B6088E0484A7B6852F8232047497B686B
:1001DC0041F82320464A7B6852F8232042497B6829
:1001EC0041F823207B68002B0BD14FF40071414860
:1001FC0001F010FB034619463D4A7B6842F8231078
:10020C001CE07B68012B0BD14FF48061394801F065
:10021C0001FB03461946364A7B6842F823100DE071
:10022C007B68022B0AD14FF40061324801F0F2FADC
:10023C00034619462E4A7B6842F823102B4A7B68EA
:10024C0052F8232028497B6851F823309A423FD139
:10025C00254A7B6852F8232025497B6851F82330C6
:10026C009A4235D1244A7B6852F8232020497B6876
:10027C0051F823309A4217D01D4A7B6852F823203C
:10028C001D497B6841F82320194A7B6852F82330BA
:10029C00002B1DD17868FFF765FF184A7B684FF477
:1002AC00967142F8231013E0144A7B6852F82330FD
:1002BC005A1E12497B6841F82320104A7B6852F879
:1002CC002330002B04D10C4A7B68012142F8231007
:1002DC007B6801337B607B68022B7FF773AF00BFB9
:1002EC0000BF0837BD4680BD0C0000200000002078
:1002FC0018000020000C01402400002030000020D9
:10030C0080B400AF524B1968524B83FB01239A10F7
:10031C00CB17D21A13469B0013445B00CA1A4E4BE0
:10032C001A604B4B1B684B4A82FB03129210DB1773
:10033C00D31A494A5360494B1968464B83FB012336
:10034C009A10CB17D21A13469B0013445B00CA1A9F
:10035C00414B9A60414B1B683E4A82FB0312921040
:10036C00DB17D31A3C4AD3603D4B1B683A4A1361E6
:10037C003B4B1B68013B032B5FD801A252F823F0C7
:10038C009D030008AB030008DF03000813040008FA
:10039C00314B00225A61304B00229A6154E0314BB0
:1003AC001B682C4A82FB03129210DB17D31A2A4AC1
:1003BC0053612C4B1968274B83FB01239A10CB17E5
:1003CC00D21A13469B0013445B00CA1A224B9A6143
:1003DC003AE0254B1B681F4A82FB03129210DB1775
:1003EC00D31A1D4A5361204B19681A4B83FB012306
:1003FC009A10CB17D21A13469B0013445B00CA1AEF
:10040C00154B9A6120E0194B1B68124A82FB0312B0
:10041C009210DB17D31A104A5361144B19680D4B09
:10042C0083FB01239A10CB17D21A13469B0013445B
:10043C005B00CA1A084B9A6106E0074B00225A610E
:10044C00054B00229A6100BF00BFBD4680BC7047BF
:10045C009C0000206766666674000020A0000020E7
:10046C00A4000020A8000020B0000020AC00002058
:10047C0080B582B000AF78607B68062B00F24D81AE
:10048C0001A252F823F000BFB10400080B050008CC
:10049C0065050008BF05000819060008730600086A
:1004AC00CD060008002220219E4801F0CAF9012245
:1004BC0040219C4801F0C5F901228021994801F0A6
:1004CC00C0F901224FF48071964801F0BAF901226B
:1004DC004FF40071934801F0B4F901224FF48041BC
:1004EC00914801F0AEF901224FF400418E4801F021
:1004FC00A8F98E4B1B68184600F01AF90EE1012280
:10050C002021884801F09DF900224021854801F006
:10051C0098F901228021834801F093F901224FF4CC
:10052C008071804801F08DF901224FF400717D48F3
:10053C0001F087F901224FF480417B4801F081F9E9
:10054C0001224FF40041784801F07BF9774B5B684E
:10055C00184600F0EDF8E1E001222021714801F08D
:10056C0070F9012240216F4801F06BF900228021C3
:10057C006C4801F066F901224FF48071694801F072
:10058C0060F901224FF40071664801F05AF901221A
:10059C004FF48041644801F054F901224FF40041BA
:1005AC00614801F04EF9614B9B68184600F0C0F8A9
:1005BC00B4E0012220215B4801F043F901224021E3
:1005CC00584801F03EF901228021564801F039F9D2
:1005DC0000224FF48071534801F033F901224FF49B
:1005EC000071504801F02DF901224FF480414E4822
:1005FC0001F027F901224FF400414B4801F021F999
:10060C004A4BDB68184600F093F887E00122202162
:10061C00444801F016F901224021424801F011F939
:10062C00012280213F4801F00CF901224FF4807126
:10063C003C4801F006F900224FF40071394801F0F2
:10064C0000F901224FF48041374801F0FAF80122F9
:10065C004FF40041344801F0F4F8344B1B69184650
:10066C0000F066F85AE0012220212E4801F0E9F84A
:10067C00012240212B4801F0E4F801228021294875
:10068C0001F0DFF801224FF48071264801F0D9F80F
:10069C0001224FF40071234801F0D3F800224FF4EB
:1006AC008041214801F0CDF801224FF400411E4851
:1006BC0001F0C7F81D4B5B69184600F039F82DE0C6
:1006CC0001222021174801F0BCF8012240211548D5
:1006DC0001F0B7F801228021124801F0B2F8012292
:1006EC004FF480710F4801F0ACF801224FF4007107
:1006FC000C4801F0A6F801224FF480410A4801F0A1
:10070C00A0F800224FF40041074801F09AF8074B7B
:10071C005B69184600F00CF800E000BF00BF08371A
:10072C00BD4680BD00080140000C01407400002053
:10073C0080B582B000AF78607B68092B00F28081B5
:10074C0001A252F823F000BF7D070008C50700087E
:10075C000D080008550800089D080008E508000869
:10076C002D09000875090008BD090008050A0008D4
:10077C0000220121C64801F064F800220221C4487D
:10078C0001F05FF800220421C14801F05AF8002260
:10079C000821BF4801F055F800221021BC4801F097
:1007AC0050F800222021BA4801F04BF801224021D8
:1007BC00B74801F046F867E101220121B44801F085
:1007CC0040F800220221B24801F03BF8002204213B
:1007DC00AF4801F036F801220821AD4801F031F89C
:1007EC0001221021AA4801F02CF801222021A8484E
:1007FC0001F027F801224021A54801F022F843E13D
:10080C0000220121A24801F01CF800220221A0487C
:10081C0001F017F8012204219D4801F012F8002282
:10082C0008219B4801F00DF800221021984801F096
:10083C0008F801222021964801F003F800224021FB
:10084C00934800F0FEFF1FE100220121904800F0C8
:10085C00F8FF002202218E4800F0F3FF0022042151
:10086C008B4800F0EEFF00220821894800F0E9FFD8
:10087C0001221021864800F0E4FF01222021844847
:10088C0000F0DFFF00224021814800F0DAFFFBE09E
:10089C00012201217E4800F0D4FF002202217C4875
:1008AC0000F0CFFF00220421794800F0CAFF01229A
:1008BC000821774800F0C5FF01221021744800F090
:1008CC00C0FF00222021724800F0BBFF0022402113
:1008DC006F4800F0B6FFD7E0002201216C4800F011
:1008EC00B0FF012202216A4800F0ABFF0022042174
:1008FC00674800F0A6FF00220821654800F0A1FF20
:10090C0001221021624800F09CFF00222021604847
:10091C0000F097FF002240215D4800F092FFB3E009
:10092C00002201215A4800F08CFF01220221584874
:10093C0000F087FF00220421554800F082FF0022BE
:10094C000821534800F07DFF00221021504800F090
:10095C0078FF002220214E4800F073FF0022402136
:10096C004B4800F06EFF8FE000220121484800F058
:10097C0068FF00220221464800F063FF0022042198
:10098C00434800F05EFF01220821414800F059FF66
:10099C00012210213E4800F054FF012220213C4846
:1009AC0000F04FFF01224021394800F04AFF6BE074
:1009BC0000220121364800F044FF00220221344875
:1009CC0000F03FFF00220421314800F03AFF0022E2
:1009DC0008212F4800F035FF002210212C4800F090
:1009EC0030FF002220212A4800F02BFF002240215A
:1009FC00274800F026FF47E000220121244800F0A0
:100A0C0020FF00220221224800F01BFF00220421BB
:100A1C001F4800F016FF002208211D4800F011FFAE
:100A2C00012210211A4800F00CFF00222021184846
:100A3C0000F007FF00224021154800F002FF23E0E0
:100A4C0000220121124800F0FCFE00220221104875
:100A5C0000F0F7FE002204210D4800F0F2FE002207
:100A6C0008210B4800F0EDFE00221021084800F090
:100A7C00E8FE00222021064800F0E3FE002240217F
:100A8C00034800F0DEFE00BF00BF0837BD4680BD46
:100A9C00000C014080B500AF314B1B68012B5CD1C1
:100AAC00304B1B68002B09D18C2000F0CDFA0120B3
:100ABC00FFF7DEFC2B4B01221A604EE0294B1B6822
:100ACC00012B09D18C2000F0BFFA0220FFF7D0FCDB
:100ADC00244B02221A6040E0224B1B68022B09D1E6
:100AEC008C2000F0B1FA0320FFF7C2FC1D4B03224F
:100AFC001A6032E01B4B1B68032B09D18C2000F0D1
:100B0C00A3FA0420FFF7B4FC164B04221A6024E06D
:100B1C00144B1B68042B09D18C2000F095FA05208E
:100B2C00FFF7A6FC0F4B05221A6016E00D4B1B6855
:100B3C00052B09D18C2000F087FA0620FFF798FCD2
:100B4C00084B06221A6008E08C2000F07DFA002089
:100B5C00FFF78EFC034B00221A6000BF80BD00BF64
:100B6C00C00000209000002080B500AF6A4B1B68CD
:100B7C00012B40F0CC80694B01221A60FFF7C0FBBF
:100B8C00674B1B68012B40F0B980664B1B68013327
:100B9C00644A1360634B1B68052B4DDC614B1B686F
:100BAC00C3F10503604A136001224FF480615F4872
:100BBC0000F047FE00224FF400615C4800F041FE5B
:100BCC0000224FF48051594800F03BFE554B1B68F6
:100BDC00022B18DC534B1B68C3F10203544A1360FD
:100BEC0000224FF40051514800F02BFE01224FF42B
:100BFC0080414E4800F025FE00224FF400414B4846
:100C0C0000F01FFE6FE0474B1B68C3F10503484A19
:100C1C00136000224FF40051444800F012FE0022F1
:100C2C004FF48041414800F00CFE01224FF400418A
:100C3C003E4800F006FE56E03A4B1B68072B30DCB2
:100C4C00384B1B68C3F10703374A136000224FF47B
:100C5C008061364800F0F5FD01224FF40061334805
:100C6C0000F0EFFD00224FF48051304800F0E9FD18
:100C7C002C4B1B68C3F10A032D4A136001224FF45D
:100C8C0000512A4800F0DDFD00224FF48041274836
:100C9C0000F0D7FD00224FF40041244800F0D1FDB4
:100CAC0021E0204B1B680A2B1DDC1E4B1B68C3F17B
:100CBC000A031D4A136000224FF480611B4800F0A8
:100CCC00C0FD00224FF40061184800F0BAFD01226B
:100CDC004FF48051154800F0B4FD124B1B68C3F162
:100CEC000A03134A13600F4B1B68092B02DD0D4BD3
:100CFC0000221A604FF47A7000F08CF9FFF720FA9A
:100D0C000346012B05D1044B02221A6001E000BFFF
:100D1C0000E000BF00BF80BD98000020A4000020B0
:100D2C00B8000020940000209C0000200008014026
:100D3C00A000002080B500AF254B1B68042B3ED8CB
:100D4C0001A252F823F000BF690D0008CB0D00087A
:100D5C00770D0008930D0008AF0D00081D4B002205
:100D6C001A601B4B01221A6030E01B4B02221A60E6
:100D7C00FFF7C6FAFFF7E4F90346012B21D1144B18
:100D8C0003221A601DE0144B03221A60FFF7B8FA15
:100D9C00FFF7D6F90346012B15D10D4B04221A602F
:100DAC0011E00D4B04221A60FFF7AAFAFFF7C8F9FD
:100DBC000346012B09D1064B01221A6005E000BF46
:100DCC0004E000BF02E000BF00E000BF00BF80BD38
:100DDC009800002094000020A400002080B500AFF3
:100DEC0000F02EFA00F016F800F09CF800F04EF827
:100DFC00074801F077F9FA2000F026F94FF47A70E1
:100E0C0000F008F9FFF7B0FEFFF794FFFAE700BF18
:100E1C00C400002080B590B000AF07F11803282261
:100E2C000021184601F016FD3B1D00221A605A6085
:100E3C009A60DA601A610223BB610123BB62102342
:100E4C00FB6200237B6307F11803184600F012FDC8
:100E5C000346002B01D000F0D7F80F237B60002352
:100E6C00BB600023FB6000233B6100237B613B1DC7
:100E7C000021184600F07EFF0346002B01D000F045
:100E8C00C3F800BF4037BD4680BD000080B586B0BA
:100E9C0000AF07F1080300221A605A609A60DA600A
:100EAC003B4600221A605A601D4B4FF080421A607C
:100EBC001B4B41F63F725A60194B00229A60184B3B
:100ECC000922DA60164B00221A61154B00229A6136
:100EDC00134801F0B7F80346002B01D000F094F84A
:100EEC004FF48053BB6007F1080319460C4801F01E
:100EFC004DFA0346002B01D000F086F800233B602E
:100F0C0000237B603B461946054801F015FC03465F
:100F1C00002B01D000F078F800BF1837BD4680BD1B
:100F2C00C400002080B586B000AF07F10803002292
:100F3C001A605A609A60DA60294B9B69284A43F020
:100F4C0004039361264B9B6903F004037B607B686D
:100F5C00234B9B69224A43F008039361204B9B6906
:100F6C0003F008033B603B6800224FF6F0711D480C
:100F7C0000F067FC00224CF27F011B4800F061FC82
:100F8C004FF6F073BB600123FB6000233B6102232F
:100F9C007B6107F108031946124800F0C1FA4CF2C4
:100FAC007F03BB600123FB6000233B6102237B6159
:100FBC0007F1080319460C4800F0B2FA4FF46063CD
:100FCC00BB600023FB6001233B6107F1080319465A
:100FDC00054800F0A5FA00BF1837BD4680BD00BF1C
:100FEC000010024000080140000C014080B582B0A6
:100FFC0000AF786000F042F8FFF7DEF8FFF74AFD2B
:10100C0000BF0837BD4680BD80B400AF72B600BFCC
:10101C00FEE7000080B483B000AF7860074B1B681C
:10102C007A6892FBF3F3064A1360064B00221A60AF
:10103C0000BF0C37BD4680BC704700BF3C00002091
:10104C00B4000020B800002080B483B000AF7860FA
:10105C00074B1B687A6892FBF3F3064A1360064B46
:10106C0000221A6000BF0C37BD4680BC704700BF21
:10107C003C000020BC000020C000002080B400AF69
:10108C00114B1B68002B0BDD0F4B1B68013B0E4AF1
:10109C0013600D4B1B68002B02D10C4B01221A6004
:1010AC000B4B1B68002B0BDD094B1B68013B084AE3
:1010BC001360074B1B68002B02D1064B01221A60F0
:1010CC0000BFBD4680BC7047B4000020B8000020B3
:1010DC00BC000020C000002080B485B000AF154BD0
:1010EC009B69144A43F001039361124B9B6903F013
:1010FC000103BB60BB680F4BDB690E4A43F08053A6
:10110C00D3610C4BDB6903F080537B607B680A4B2B
:10111C005B68FB60FB6823F0E063FB60FB6843F0FB
:10112C008063FB60044AFB68536000BF1437BD4604
:10113C0080BC7047001002400000014080B584B0B4
:10114C0000AF78607B681B68B3F1804F13D10C4BF8
:10115C00DB690B4A43F00103D361094BDB6903F0F4
:10116C000103FB60FB68002200211C2000F0A1F9A8
:10117C001C2000F0BAF900BF1037BD4680BD00BF7F
:10118C000010024080B400AFFEE780B400AFFEE771
:10119C0080B400AFFEE780B400AFFEE780B400AFD0
:1011AC00FEE780B400AF00BFBD4680BC704780B482
:1011BC0000AF00BFBD4680BC704780B400AF00BF1D
:1011CC00BD4680BC704780B500AF00F07FF800BF13
:1011DC0080BD000080B500AF024800F0CFFF00BF1B
:1011EC0080BD00BFC400002080B400AF00BFBD466E
:1011FC0080BC70470C480D490D4A002302E0D458BE
:10120C00C4500433C4188C42F9D30A4A0A4C002344
:10121C0001E013600432A242FBD3FFF7E5FF01F0BB
:10122C00F5FAFFF7DBFD7047000000204C000020B2
:10123C00B02800084C00002010010020FEE7000040
:10124C0080B500AF084B1B68074A43F010031360CE
:10125C00032000F023F90F2000F008F8FFF73CFF03
:10126C000023184680BD00BF0020024080B582B02C
:10127C0000AF7860124B1A68124B1B7819464FF46A
:10128C007A73B3FBF1F3B2FBF3F3184600F03BF9BE
:10129C000346002B01D001230EE07B680F2B0AD8EC
:1012AC00002279684FF0FF3000F003F9064A7B68A2
:1012BC001360002300E0012318460837BD4680BDAB
:1012CC0040000020480000204400002080B400AF03
:1012DC00054B1B781A46054B1B681344034A1360D5
:1012EC0000BFBD4680BC7047480000200C010020A8
:1012FC0080B400AF024B1B681846BD4680BC7047DB
:10130C000C01002080B485B000AF78607B6803F0DE
:10131C000703FB600C4BDB68BB60BA684FF6FF033E
:10132C001340BB60FB681A02BB68134343F0BF63F6
:10133C0043F40033BB60044ABB68D36000BF14376E
:10134C00BD4680BC704700BF00ED00E080B400AF2C
:10135C00044BDB681B0A03F007031846BD4680BC30
:10136C00704700BF00ED00E080B483B000AF0346CF
:10137C00FB7197F90730002B0BDBFB7903F01F0295
:10138C00064997F907305B09012000FA02F241F88F
:10139C00232000BF0C37BD4680BC704700E100E045
:1013AC0080B483B000AF03463960FB7197F9073006
:1013BC00002B0ADB3B68DAB20C4997F907301201B3
:1013CC00D2B20B4483F800230AE03B68DAB2084936
:1013DC00FB7903F00F03043B1201D2B20B441A76D3
:1013EC0000BF0C37BD4680BC704700BF00E100E079
:1013FC0000ED00E080B489B000AFF860B9607A60AD
:10140C00FB6803F00703FB61FB69C3F10703042BC3
:10141C0028BF0423BB61FB690433062B02D9FB698B
:10142C00033B00E000237B614FF0FF32BB6902FA03
:10143C0003F3DA43BB681A407B699A404FF0FF31E3
:10144C007B6901FA03F3D9437B680B4013431846BD
:10145C002437BD4680BC704780B582B000AF786041
:10146C007B68013BB3F1807F01D301230FE00A4A73
:10147C007B68013B53600F214FF0FF30FFF790FF6B
:10148C00054B00229A60044B07221A600023184671
:10149C000837BD4680BD00BF10E000E080B582B0CB
:1014AC0000AF78607868FFF72DFF00BF0837BD46A6
:1014BC0080BD80B586B000AF0346B9607A60FB731F
:1014CC0000237B61FFF742FF78617A68B96878691D
:1014DC00FFF790FF024697F90F3011461846FFF7B9
:1014EC005FFF00BF1837BD4680BD80B582B000AF2E
:1014FC000346FB7197F907301846FFF735FF00BF1D
:10150C000837BD4680BD80B582B000AF7860786882
:10151C00FFF7A2FF034618460837BD4680BD000002
:10152C0080B48BB000AF7860396000237B620023FD
:10153C003B6248E101227B6A02FA03F3FB613B68E0
:10154C001B68FA691340BB61BA69FB699A4240F0A7
:10155C0037813B685B68A34A93425ED0A14A9342B1
:10156C0075D8A14A934258D09F4A93426FD89F4A4C
:10157C00934252D09D4A934269D89D4A93424CD093
:10158C009B4A934263D89B4A934246D0994A9342D2
:10159C005DD8122B2AD8122B59D801A252F823F05D
:1015AC002716000801160008131600085516000827
:1015BC005B1600085B1600085B1600085B1600083B
:1015CC005B1600085B1600085B1600085B1600082B
:1015DC005B1600085B1600085B1600085B1600081B
:1015EC005B160008091600081D160008824A934273
:1015FC0013D02CE03B68DB683B6229E03B68DB687E
:10160C0004333B6224E03B68DB6808333B621FE039
:10161C003B68DB680C333B621AE03B689B68002B31
:10162C0002D104233B6213E03B689B68012B05D17C
:10163C0008233B627B68FA691A6109E008233B6264
:10164C007B68FA695A6103E000233B6200E000BF4B
:10165C00BB69FF2B01D87B6801E07B6804337B619D
:10166C00BB69FF2B02D87B6A9B0002E07B6A083BBC
:10167C009B003B617B691A680F213B6901FA03F3FC
:10168C00DB431A40396A3B6901FA03F31A437B695D
:10169C001A603B685B6803F08053002B00F090806D
:1016AC00564B9B69554A43F001039361534B9B691D
:1016BC0003F00103BB60BB68514A7B6A9B08023391
:1016CC0052F82330FB607B6A03F003039B000F226C
:1016DC0002FA03F3DB43FA681340FB607B68494A68
:1016EC0093420DD07B68484A934207D07B68474AA7
:1016FC00934201D1022304E0032302E0012300E022
:10170C0000237A6A02F0030292009340FA681343B2
:10171C00FB603B497B6A9B080233FA6841F8232043
:10172C003B685B6803F48033002B06D0384B1A6897
:10173C003749BB6913430B6006E0354B1A68BB692C
:10174C00DB43334913400B603B685B6803F40033A5
:10175C00002B06D02E4B5A682D49BB6913434B60A6
:10176C0006E02B4B5A68BB69DB43294913404B609D
:10177C003B685B6803F48013002B06D0244B9A68FB
:10178C002349BB6913438B6006E0214B9A68BB6904
:10179C00DB431F4913408B603B685B6803F4001309
:1017AC00002B06D01A4BDA681949BB691343CB607E
:1017BC0006E0174BDA68BB69DB4315491340CB6075
:1017CC007B6A01337B623B681A687B6A22FA03F3FB
:1017DC00002B7FF4AFAE00BF00BF2C37BD4680BCE2
:1017EC00704700BF000032100000311000002210C2
:1017FC000000211000001210000011100010024017
:10180C000000014000080140000C014000100140A4
:10181C000004014080B485B000AF78600B467B803B
:10182C007B689A687B881340002B02D00123FB73E2
:10183C0001E00023FB73FB7B18461437BD4680BCCC
:10184C00704780B483B000AF78600B467B80134642
:10185C007B707B78002B03D07A887B681A6103E05D
:10186C007B881A047B681A6100BF0C37BD4680BCAC
:10187C007047000080B586B000AF78607B68002BA5
:10188C0001D101236CE27B681B6803F00103002B80
:10189C0000F08780924B5B6803F00C03042B0CD098
:1018AC008F4B5B6803F00C03082B12D18C4B5B68DD
:1018BC0003F48033B3F5803F0BD1894B1B6803F4E1
:1018CC000033002B6CD07B685B68002B68D1012344
:1018DC0046E27B685B68B3F5803F06D1804B1B68A2
:1018EC007F4A43F4803313602EE07B685B68002BE7
:1018FC000CD17B4B1B687A4A23F480331360784BF2
:10190C001B68774A23F4802313601DE07B685B68B7
:10191C00B3F5A02F0CD1724B1B68714A43F4802392
:10192C0013606F4B1B686E4A43F4803313600BE0FB
:10193C006B4B1B686A4A23F480331360684B1B683B
:10194C00674A23F4802313607B685B68002B13D0F9
:10195C00FFF7CEFC386108E0FFF7CAFC02463B6992
:10196C00D31A642B01D90323FAE15D4B1B6803F4F2
:10197C000033002BF0D014E0FFF7BAFC386108E01C
:10198C00FFF7B6FC02463B69D31A642B01D903233B
:10199C00E6E1534B1B6803F40033002BF0D100E05D
:1019AC0000BF7B681B6803F00203002B63D04C4B19
:1019BC005B6803F00C03002B0BD0494B5B6803F006
:1019CC000C03082B1CD1464B5B6803F48033002BB3
:1019DC0016D1434B1B6803F00203002B05D07B6828
:1019EC001B69012B01D00123BAE13D4B1B6823F08D
:1019FC00F8027B685B69DB00394913430B603AE002
:101A0C007B681B69002B20D0364B01221A60FFF734
:101A1C006FFC386108E0FFF76BFC02463B69D31A98
:101A2C00022B01D903239BE12D4B1B6803F002030E
:101A3C00002BF0D02A4B1B6823F0F8027B685B6903
:101A4C00DB00274913430B6015E0264B00221A607C
:101A5C00FFF74EFC386108E0FFF74AFC02463B6991
:101A6C00D31A022B01D903237AE11D4B1B6803F017
:101A7C000203002BF0D17B681B6803F00803002BDA
:101A8C003AD07B689B69002B19D0174B01221A6046
:101A9C00FFF72EFC386108E0FFF72AFC02463B6991
:101AAC00D31A022B01D903235AE10D4B5B6A03F0C5
:101ABC000203002BF0D0012000F0A6FA1CE00A4B28
:101ACC0000221A60FFF714FC38610FE0FFF710FCDE
:101ADC0002463B69D31A022B08D9032340E100BF0D
:101AEC000010024000004242800442429E4B5B6A5E
:101AFC0003F00203002BE9D17B681B6803F004039D
:101B0C00002B00F0A6800023FB75974BDB6903F0DC
:101B1C008053002B0DD1944BDB69934A43F08053D7
:101B2C00D361914BDB6903F08053BB60BB6801232D
:101B3C00FB758E4B1B6803F48073002B18D18B4BF9
:101B4C001B688A4A43F480731360FFF7D1FB38613A
:101B5C0008E0FFF7CDFB02463B69D31A642B01D991
:101B6C000323FDE0814B1B6803F48073002BF0D042
:101B7C007B68DB68012B06D17B4B1B6A7A4A43F0EE
:101B8C00010313622DE07B68DB68002B0CD1764BD4
:101B9C001B6A754A23F001031362734B1B6A724A6A
:101BAC0023F0040313621CE07B68DB68052B0CD16B
:101BBC006D4B1B6A6C4A43F0040313626A4B1B6A3D
:101BCC00694A43F0010313620BE0674B1B6A664AD8
:101BDC0023F001031362644B1B6A634A23F0040372
:101BEC0013627B68DB68002B15D0FFF781FB386133
:101BFC000AE0FFF77DFB02463B69D31A41F28832BB
:101C0C00934201D90323ABE0574B1B6A03F0020349
:101C1C00002BEED014E0FFF76BFB38610AE0FFF706
:101C2C0067FB02463B69D31A41F28832934201D9D1
:101C3C00032395E04C4B1B6A03F00203002BEED1FF
:101C4C00FB7D012B05D1484BDB69474A23F08053C0
:101C5C00D3617B68DB69002B00F08180424B5B68B1
:101C6C0003F00C03082B61D07B68DB69022B46D197
:101C7C003F4B00221A60FFF73BFB386108E0FFF78F
:101C8C0037FB02463B69D31A022B01D9032367E0C9
:101C9C00354B1B6803F00073002BF0D17B681B6A7B
:101CAC00B3F5803F08D1304B5B6823F400327B687E
:101CBC009B682D4913434B602B4B5B6823F47412C8
:101CCC007B68196A7B685B6A0B43274913434B603B
:101CDC00274B01221A60FFF70BFB386108E0FFF776
:101CEC0007FB02463B69D31A022B01D9032337E0C9
:101CFC001D4B1B6803F00073002BF0D02FE01C4B26
:101D0C0000221A60FFF7F4FA386108E0FFF7F0FAE6
:101D1C0002463B69D31A022B01D9032320E0124B54
:101D2C001B6803F00073002BF0D118E07B68DB69B3
:101D3C00012B01D1012313E00B4B5B68FB60FB68AB
:101D4C0003F480327B681B6A9A4206D1FB6803F469
:101D5C0070127B685B6A9A4201D0012300E0002379
:101D6C0018461837BD4680BD001002400070004078
:101D7C006000424280B584B000AF786039607B6807
:101D8C00002B01D10123D0E06A4B1B6803F0070341
:101D9C003A689A4210D9674B1B6823F007026549D1
:101DAC003B6813430B60634B1B6803F007033A68F3
:101DBC009A4201D00123B8E07B681B6803F0020350
:101DCC00002B20D07B681B6803F00403002B05D08C
:101DDC00594B5B68584A43F4E06353607B681B685B
:101DEC0003F00803002B05D0534B5B68524A43F4B5
:101DFC0060535360504B5B6823F0F0027B689B6828
:101E0C004D4913434B607B681B6803F00103002BA7
:101E1C0040D07B685B68012B07D1474B1B6803F4F0
:101E2C000033002B15D101237FE07B685B68022B0C
:101E3C0007D1414B1B6803F00073002B09D1012320
:101E4C0073E03D4B1B6803F00203002B01D101230F
:101E5C006BE0394B5B6823F003027B685B683649A7
:101E6C0013434B60FFF744FAF8600AE0FFF740FABF
:101E7C000246FB68D31A41F28832934201D90323FC
:101E8C0053E02D4B5B6803F00C027B685B689B0096
:101E9C009A42EBD1274B1B6803F007033A689A422E
:101EAC0010D2244B1B6823F0070222493B681343D2
:101EBC000B60204B1B6803F007033A689A4201D071
:101ECC00012332E07B681B6803F00403002B08D06D
:101EDC00194B5B6823F4E0627B68DB68164913439B
:101EEC004B607B681B6803F00803002B09D0124B76
:101EFC005B6823F460527B681B69DB000E4913435B
:101F0C004B6000F021F802460B4B5B681B0903F099
:101F1C000F030A49CB5C22FA03F3094A1360094BFD
:101F2C001B681846FFF7A2F9002318461037BD4668
:101F3C0080BD00BF0020024000100240982800081D
:101F4C00400000204400002090B48AB000AF2A4B1F
:101F5C003C1D0FCB84E80F0040F201233B80002393
:101F6C00FB610023BB6100237B6200237B610023A8
:101F7C003B62224B5B68FB61FB6903F00C03042B97
:101F8C0002D0082B03D02DE01D4B3B622DE0FB69EA
:101F9C009B0C03F00F0307F12802134413F8243CA5
:101FAC007B61FB6903F48033002B13D0134B5B680C
:101FBC005B0C03F0010307F12802134413F8283CCF
:101FCC00BB617B690E4A02FB03F2BB69B2FBF3F304
:101FDC007B6204E07B690B4A02FB03F37B627B6A46
:101FEC003B6202E0064B3B6200BF3B6A1846283757
:101FFC00BD4690BC704700BF882800080010024006
:10200C0000127A0000093D0080B485B000AF786002
:10201C000A4B1B680A4AA2FB03235B0A7A6802FB81
:10202C0003F3FB6000BFFB685A1EFA60002BF9D16A
:10203C0000BF00BF1437BD4680BC70474000002075
:10204C00D34D621080B582B000AF78607B68002BF6
:10205C0001D1012341E07B6893F83D30DBB2002BCA
:10206C0006D17B68002283F83C207868FFF766F87D
:10207C007B68022283F83D207B681A687B680433F6
:10208C001946104600F06AFA7B68012283F8462054
:10209C007B68012283F83E207B68012283F83F2075
:1020AC007B68012283F840207B68012283F8412061
:1020BC007B68012283F842207B68012283F843204D
:1020CC007B68012283F844207B68012283F8452039
:1020DC007B68012283F83D20002318460837BD4653
:1020EC0080BD000080B485B000AF78607B6893F849
:1020FC003D30DBB2012B01D0012335E07B6802229D
:10210C0083F83D207B681B68DA687B681B6842F0AB
:10211C000102DA607B681B68164A934209D07B681F
:10212C001B68B3F1804F04D07B681B68124A934242
:10213C0011D17B681B689B6803F00703FB60FB688D
:10214C00062B10D07B681B681A687B681B6842F0F2
:10215C0001021A6007E07B681B681A687B681B68C1
:10216C0042F001021A60002318461437BD4680BCA9
:10217C00704700BF002C01400004004080B582B0C5
:10218C0000AF78607B681B681B6903F00203022BAD
:10219C0022D17B681B68DB6803F00203022B1BD186
:1021AC007B681B686FF002021A617B6801221A7748
:1021BC007B681B689B6903F00303002B03D07868D2
:1021CC0000F0B1F905E0786800F0A4F9786800F047
:1021DC00B3F97B6800221A777B681B681B6903F0D4
:1021EC000403042B22D17B681B68DB6803F0040317
:1021FC00042B1BD17B681B686FF004021A617B688F
:10220C0002221A777B681B689B6903F44073002BCE
:10221C0003D0786800F087F905E0786800F07AF967
:10222C00786800F089F97B6800221A777B681B6854
:10223C001B6903F00803082B22D17B681B68DB6841
:10224C0003F00803082B1BD17B681B686FF0080296
:10225C001A617B6804221A777B681B68DB6903F0C0
:10226C000303002B03D0786800F05DF905E0786873
:10227C0000F050F9786800F05FF97B6800221A775B
:10228C007B681B681B6903F01003102B22D17B6841
:10229C001B68DB6803F01003102B1BD17B681B68D9
:1022AC006FF010021A617B6808221A777B681B6832
:1022BC00DB6903F44073002B03D0786800F033F92A
:1022CC0005E0786800F026F9786800F035F97B684D
:1022DC0000221A777B681B681B6903F00103012B32
:1022EC000ED17B681B68DB6803F00103012B07D15F
:1022FC007B681B686FF001021A617868FEF776FE46
:10230C007B681B681B6903F08003802B0ED17B68F4
:10231C001B68DB6803F08003802B07D17B681B688C
:10232C006FF080021A61786800F067FA7B681B68AE
:10233C001B6903F04003402B0ED17B681B68DB68E4
:10234C0003F04003402B07D17B681B686FF0400201
:10235C001A61786800F0F9F87B681B681B6903F058
:10236C002003202B0ED17B681B68DB6803F0200355
:10237C00202B07D17B681B686FF020021A617868EC
:10238C0000F032FA00BF0837BD4680BD80B584B07E
:10239C0000AF786039607B6893F83C30012B01D139
:1023AC000223B3E07B68012283F83C207B68022285
:1023BC0083F83D207B681B689B68FB60FB6823F0FF
:1023CC007703FB60FB6823F47F43FB607B681B682F
:1023DC00FA689A603B681B68B3F5005F3ED0B3F5B2
:1023EC00005F00F28780B3F5805F00F08580B3F565
:1023FC00805F7FD8702B1AD0702B7BD8602B50D07D
:10240C00602B77D8502B3CD0502B73D8402B58D006
:10241C00402B6FD8302B64D0302B6BD8202B60D056
:10242C00202B67D8002B5CD0102B5AD062E07B6835
:10243C0018683B6899683B685A683B68DB6800F031
:10244C005CF97B681B689B68FB60FB6843F0770357
:10245C00FB607B681B68FA689A604EE07B681868C2
:10246C003B6899683B685A683B68DB6800F045F943
:10247C007B681B689A687B681B6842F480429A6090
:10248C003BE07B6818683B6859683B68DB681A4618
:10249C0000F0BCF87B681B685021184600F013F95B
:1024AC002BE07B6818683B6859683B68DB681A4608
:1024BC0000F0DAF87B681B686021184600F003F91D
:1024CC001BE07B6818683B6859683B68DB681A46F8
:1024DC0000F09CF87B681B684021184600F0F3F86C
:1024EC000BE07B681A683B681B681946104600F0C5
:1024FC00EAF802E000BF00E000BF7B68012283F82D
:10250C003D207B68002283F83C20002318461037BE
:10251C00BD4680BD80B483B000AF786000BF0C377F
:10252C00BD4680BC704780B483B000AF786000BFFC
:10253C000C37BD4680BC704780B483B000AF786068
:10254C0000BF0C37BD4680BC704780B483B000AF71
:10255C00786000BF0C37BD4680BC704780B485B036
:10256C0000AF786039607B681B68FB607B68254A2C
:10257C00934207D07B68B3F1804F03D07B68224A2B
:10258C00934208D1FB6823F07003FB603B685B68E7
:10259C00FA681343FB607B681A4A934207D07B6846
:1025AC00B3F1804F03D07B68174A934208D1FB6884
:1025BC0023F44073FB603B68DB68FA681343FB60F1
:1025CC00FB6823F080023B685B691343FB607B680C
:1025DC00FA681A603B689A687B68DA623B681A682A
:1025EC007B689A627B68074A934203D13B681A69FD
:1025FC007B681A637B6801225A6100BF1437BD46A1
:10260C0080BC7047002C01400004004080B487B0AF
:10261C0000AFF860B9607A60FB681B6A7B61FB688D
:10262C001B6A23F00102FB681A62FB689B693B6121
:10263C003B6923F0F0033B617B681B013A69134350
:10264C003B617B6923F00A037B617A69BB681343A6
:10265C007B61FB683A699A61FB687A691A6200BF10
:10266C001C37BD4680BC704780B487B000AFF860A3
:10267C00B9607A60FB681B6A23F01002FB681A626F
:10268C00FB689B697B61FB681B6A3B617B6923F47C
:10269C0070437B617B681B037A6913437B613B69E5
:1026AC0023F0A0033B61BB681B013A6913433B61F8
:1026BC00FB687A699A61FB683A691A6200BF1C3739
:1026CC00BD4680BC704780B485B000AF786039607F
:1026DC007B689B68FB60FB6823F07003FB603A68C7
:1026EC00FB68134343F00703FB607B68FA689A604E
:1026FC0000BF1437BD4680BC704780B487B000AFB4
:10270C00F860B9607A603B60FB689B687B617B69B1
:10271C0023F47F437B613B681A027B681A43BB68D6
:10272C0013437A6913437B61FB687A699A6000BF33
:10273C001C37BD4680BC704780B485B000AF786054
:10274C0039607B6893F83C30012B01D1022341E0C6
:10275C007B68012283F83C207B68022283F83D20B1
:10276C007B681B685B68FB607B681B689B68BB6055
:10277C00FB6823F07003FB603B681B68FA6813432B
:10278C00FB607B681B68FA685A607B681B68144A9C
:10279C00934209D07B681B68B3F1804F04D07B68EF
:1027AC001B68104A93420CD1BB6823F08003BB60BA
:1027BC003B685B68BA681343BB607B681B68BA688C
:1027CC009A607B68012283F83D207B68002283F8A5
:1027DC003C20002318461437BD4680BC704700BF10
:1027EC00002C01400004004080B483B000AF78603E
:1027FC0000BF0C37BD4680BC704780B483B000AFBF
:10280C00786000BF0C37BD4680BC704770B50026A1
:10281C000C4D0D4C641BA410A64209D100F022F8FB
:10282C0000260A4D0A4C641BA410A64205D170BDAB
:10283C0055F8043B98470136EEE755F8043B9847AA
:10284C000136F2E7A8280008A8280008A8280008E4
:10285C00AC28000803460244934200D1704703F8A9
:10286C00011BF9E7F8B500BFF8BC08BC9E467047E1
:0C287C00F8B500BFF8BC08BC9E467047D1
:1028880002030405060708090A0B0C0D0E0F1010A9
:102898000000000000000000010203040607080908
:0428A80031010008F2
:0428AC000D01000812
:1028B0000100000001000000010000000100000014
:1028C0000100000001000000010000000100000004
:1028D00001000000010000000100000001000000F4
:1028E0002C0100002C0100002C0100000A00000057
:0C28F0000024F4001000000001000000B3
:0400000508001201DC
:00000001FF
