:020000040800F2
:1000000000280020E5130008751300087B13000882
:1000100081130008871300088D13000800000000FA
:100020000000000000000000000000009313000822
:100030009F13000800000000AB130008B71300086E
:100040002D1400082D1400082D1400082D1400088C
:100050002D1400082D1400082D1400082D1400087C
:100060002D1400082D1400082D1400082D1400086C
:100070002D1400082D1400082D1400082D1400085C
:100080002D1400082D1400082D1400082D1400084C
:100090002D1400082D1400082D1400082D1400083C
:1000A0002D1400082D1400082D1400082D1400082C
:1000B000C51300082D140008000000002D140008CE
:1000C0002D14000800000000000000002D1400089E
:1000D000000000002D1400082D140008000000008E
:1000E0002D1400082D1400082D1400080000000035
:1000F0000000000000000000000000000000000000
:0C01000000000000000000005FF808F1A3
:10010C0010B5054C237833B9044B13B10448AFF345
:10011C0000800123237010BD580000200000000057
:10012C00842A000808B5034B1BB103490348AFF3FD
:10013C00008008BD000000005C000020842A00083C
:10014C0080B400AF064B1B68012B04D1044B00227A
:10015C001A60012300E000231846BD4680BC70479E
:10016C007400002080B400AF064B1B68012B04D137
:10017C00044B00221A60012300E000231846BD4600
:10018C0080BC70477800002080B400AF064B1B6821
:10019C00012B04D1044B00221A60012300E0002340
:1001AC001846BD4680BC70477C00002080B483B0EC
:1001BC0000AF78607B68022B11D07B68022B12DCBD
:1001CC007B68002B03D07B68012B04D00BE0094B20
:1001DC0001221A6008E0084B01221A6004E0074B68
:1001EC0001221A6000E000BF00BF0C37BD4680BC86
:1001FC00704700BF74000020780000207C000020B5
:10020C0080B582B000AF00237B6088E0484A7B68F1
:10021C0052F8232047497B6841F82320464A7B68E3
:10022C0052F8232042497B6841F823207B68002B3D
:10023C000BD14FF40071414801F0DEFB0346194627
:10024C003D4A7B6842F823101CE07B68012B0BD1E4
:10025C004FF48061394801F0CFFB03461946364A0A
:10026C007B6842F823100DE07B68022B0AD14FF417
:10027C000061324801F0C0FB034619462E4A7B68E8
:10028C0042F823102B4A7B6852F8232028497B68BC
:10029C0051F823309A423FD1254A7B6852F82320EB
:1002AC0025497B6851F823309A4235D1244A7B6822
:1002BC0052F8232020497B6851F823309A4217D0FA
:1002CC001D4A7B6852F823201D497B6841F8232086
:1002DC00194A7B6852F82330002B1DD17868FFF740
:1002EC0065FF184A7B684FF4967142F8231013E0AF
:1002FC00144A7B6852F823305A1E12497B6841F825
:10030C002320104A7B6852F82330002B04D10C4A6E
:10031C007B68012142F823107B6801337B607B688A
:10032C00022B7FF773AF00BF00BF0837BD4680BDFF
:10033C000C0000200000002018000020000C0140E0
:10034C00240000203000002080B400AF294B196835
:10035C00294B83FB01239A10CB17D21A13469B000F
:10036C0013445B00CA1A254B1A60224B1B68224AA5
:10037C0082FB03129210DB17D31A204A5360204BD6
:10038C0019681D4B83FB01239A10CB17D21A134605
:10039C009B0013445B00CA1A184B9A60184B1B68DD
:1003AC00154A82FB03129210DB17D31A134AD3603F
:1003BC00144B1B68114A1361134B1B680E4A82FBCA
:1003CC0003129210DB17D31A0C4A53610E4B1968A7
:1003DC00094B83FB01239A10CB17D21A13469B00AF
:1003EC0013445B00CA1A054B9A6100BFBD4680BC22
:1003FC00704700BFAC000020676666668000002076
:10040C00B0000020B4000020B800002080B582B0FD
:10041C0000AF78607B68062B00F24D8101A252F888
:10042C0023F000BF4D040008A704000801050008D4
:10043C005B050008B50500080F06000869060008F2
:10044C00002220219E4801F0EEFA012240219C4816
:10045C0001F0E9FA01228021994801F0E4FA012225
:10046C004FF48071964801F0DEFA01224FF40071CE
:10047C00934801F0D8FA01224FF48041914801F0E1
:10048C00D2FA01224FF400418E4801F0CCFA8E4B87
:10049C001B68184600F01AF90EE101222021884849
:1004AC0001F0C1FA00224021854801F0BCFA01227A
:1004BC008021834801F0B7FA01224FF48071804803
:1004CC0001F0B1FA01224FF400717D4801F0ABFA52
:1004DC0001224FF480417B4801F0A5FA01224FF430
:1004EC000041784801F09FFA774B5B68184600F0A2
:1004FC00EDF8E1E001222021714801F094FA01228B
:10050C0040216F4801F08FFA002280216C4801F0E5
:10051C008AFA01224FF48071694801F084FA0122B1
:10052C004FF40071664801F07EFA01224FF48041CD
:10053C00644801F078FA01224FF40041614801F05F
:10054C0072FA614B9B68184600F0C0F8B4E00122C7
:10055C0020215B4801F067FA01224021584801F044
:10056C0062FA01228021564801F05DFA00224FF414
:10057C008071534801F057FA01224FF40071504832
:10058C0001F051FA01224FF480414E4801F04BFA30
:10059C0001224FF400414B4801F045FA4A4BDB680D
:1005AC00184600F093F887E001222021444801F01E
:1005BC003AFA01224021424801F035FA0122802109
:1005CC003F4801F030FA01224FF480713C4801F0B1
:1005DC002AFA00224FF40071394801F024FA012262
:1005EC004FF48041374801F01EFA01224FF40041CC
:1005FC00344801F018FA344B1B69184600F066F8C1
:10060C005AE0012220212E4801F00DFA012240214E
:10061C002B4801F008FA01228021294801F003FA45
:10062C0001224FF48071264801F0FDF901224FF4AC
:10063C000071234801F0F7F900224FF48041214862
:10064C0001F0F1F901224FF400411E4801F0EBF9E1
:10065C001D4B5B69184600F039F82DE00122202172
:10066C00174801F0E0F901224021154801F0DBF9AF
:10067C0001228021124801F0D6F901224FF4807139
:10068C000F4801F0D0F901224FF400710C4801F031
:10069C00CAF901224FF480410A4801F0C4F9002242
:1006AC004FF40041074801F0BEF9074B9B6918460F
:1006BC0000F00CF800E000BF00BF0837BD4680BD5D
:1006CC0000080140000C01408000002080B582B081
:1006DC0000AF78607B68092B00F2808101A252F890
:1006EC0023F000BF1907000861070008A9070008DC
:1006FC00F10700083908000881080008C90800083B
:10070C001109000859090008A1090008002201215B
:10071C00C64801F088F900220221C44801F083F98F
:10072C0000220421C14801F07EF900220821BF48B3
:10073C0001F079F900221021BC4801F074F9002273
:10074C002021BA4801F06FF901224021B74801F08D
:10075C006AF967E101220121B44801F064F9002231
:10076C000221B24801F05FF900220421AF4801F0E8
:10077C005AF901220821AD4801F055F90122102146
:10078C00AA4801F050F901222021A84801F04BF9A8
:10079C0001224021A54801F046F943E10022012144
:1007AC00A24801F040F900220221A04801F03BF9D7
:1007BC00012204219D4801F036F9002208219B48B2
:1007CC0001F031F900221021984801F02CF9012296
:1007DC002021964801F027F900224021934801F08E
:1007EC0022F91FE100220121904801F01CF900229E
:1007FC0002218E4801F017F9002204218B4801F0E8
:10080C0012F900220821894801F00DF9012210216A
:10081C00864801F008F901222021844801F003F9EF
:10082C0000224021814801F0FEF8FBE00122012169
:10083C007E4801F0F8F8002202217C4801F0F3F820
:10084C0000220421794801F0EEF8012208217748B2
:10085C0001F0E9F801221021744801F0E4F80022BB
:10086C002021724801F0DFF8002240216F4801F08E
:10087C00DAF8D7E0002201216C4801F0D4F801220B
:10088C0002216A4801F0CFF800220421674801F0E8
:10089C00CAF800220821654801F0C5F80122102190
:1008AC00624801F0C0F800222021604801F0BBF83A
:1008BC00002240215D4801F0B6F8B3E0002201218E
:1008CC005A4801F0B0F801220221584801F0ABF867
:1008DC0000220421554801F0A6F8002208215348B3
:1008EC0001F0A1F800221021504801F09CF80022E0
:1008FC0020214E4801F097F8002240214B4801F08E
:10090C0092F88FE000220121484801F08CF8002277
:10091C000221464801F087F800220421434801F0E7
:10092C0082F801220821414801F07DF801221021B2
:10093C003E4801F078F8012220213C4801F073F880
:10094C0001224021394801F06EF86BE000220121B0
:10095C00364801F068F800220221344801F063F8AF
:10096C0000220421314801F05EF8002208212F48B2
:10097C0001F059F8002210212C4801F054F8002203
:10098C0020212A4801F04FF800224021274801F08D
:10099C004AF847E000220121244801F044F80022E3
:1009AC000221224801F03FF8002204211F4801F0E7
:1009BC003AF8002208211D4801F035F801221021D7
:1009CC001A4801F030F800222021184801F02BF8C9
:1009DC0000224021154801F026F823E000220121D5
:1009EC00124801F020F800220221104801F01BF8F7
:1009FC00002204210D4801F016F8002208210B48B2
:100A0C0001F011F800221021084801F00CF8002226
:100A1C002021064801F007F800224021034801F08C
:100A2C0002F800BF00BF0837BD4680BD000C014076
:100A3C0080B500AF314B1B68012B5CD1304B1B6870
:100A4C00002B09D18C2000F0F1FB0120FFF7DEFC1C
:100A5C002B4B01221A604EE0294B1B68012B09D14C
:100A6C008C2000F0E3FB0220FFF7D0FC244B022289
:100A7C001A6040E0224B1B68022B09D18C2000F03D
:100A8C00D5FB0320FFF7C2FC1D4B03221A6032E09A
:100A9C001B4B1B68032B09D18C2000F0C7FB0420D7
:100AAC00FFF7B4FC164B04221A6024E0144B1B68AD
:100ABC00042B09D18C2000F0B9FB0520FFF7A6FC14
:100ACC000F4B05221A6016E00D4B1B68052B09D144
:100ADC008C2000F0ABFB0620FFF798FC084B06229D
:100AEC001A6008E08C2000F0A1FB0020FFF78EFCC0
:100AFC00034B00221A6000BF80BD00BFC80000205D
:100B0C009C00002080B500AF9C4B1B68012B40F073
:100B1C002F819B4B01221A60FFF716FC994B1B6827
:100B2C00012B40F00E81984B1B680133964A1360E1
:100B3C00964B1B680133954A1360934B1A68944B80
:100B4C001B689A4219DC924B1A688F4B1B68D31A9C
:100B5C00904A136001224FF480618F4800F063FFCC
:100B6C0000224FF400618C4800F05DFF00224FF42E
:100B7C008051894800F057FF50E0854B1A68874B2D
:100B8C001B681A44804B1B689A421CDB804B1A680A
:100B9C00824B1B681A447C4B1B68D31A7D4A13602A
:100BAC0000224FF480617C4800F03DFF01224FF49D
:100BBC000061794800F037FF00224FF480517648ED
:100BCC0000F031FF2AE0724B1A68744B1B681A4410
:100BDC00734B1B681A446C4B1B689A421EDB6C4BA4
:100BEC001A686E4B1B681A446D4B1B681A44664B93
:100BFC001B68D31A674A136000224FF48061664861
:100C0C0000F011FF00224FF40061634800F00BFF6D
:100C1C0001224FF48051604800F005FF5C4B1A68CC
:100C2C005E4B1B681A445E4B1B681A44564B1B6880
:100C3C009A4202DC544B00221A60544B1A68574BF0
:100C4C001B689A4219DC554B1A68504B1B68D31A17
:100C5C00544A136000224FF400514F4800F0E3FE59
:100C6C0001224FF480414C4800F0DDFE00224FF48D
:100C7C000041494800F0D7FE50E0494B1A68474BF9
:100C8C001B681A44414B1B689A421CDB444B1A6884
:100C9C00424B1B681A443D4B1B68D31A414A1360E4
:100CAC0000224FF400513C4800F0BDFE00224FF4EE
:100CBC008041394800F0B7FE01224FF4004136481C
:100CCC0000F0B1FE2AE0324B1A68344B1B681A4410
:100CDC00334B1B681A442D4B1B689A421EDB2C4B62
:100CEC001A682E4B1B681A442D4B1B681A44274B51
:100CFC001B68D31A2B4A136001224FF4005126486B
:100D0C0000F091FE00224FF48041234800F08BFE4E
:100D1C0000224FF40041204800F085FE1C4B1A685D
:100D2C001E4B1B681A441E4B1B681A44174B1B683E
:100D3C009A4202DC154B00221A604FF47A7000F0D4
:100D4C005BFAFFF7FDF90346012B13D14FF47A70D0
:100D5C0000F052FA0C4B00221A600C4B00221A6065
:100D6C000B4B1B68104A1360044B02221A6001E003
:100D7C0000BF00E000BF00BF80BD00BFA800002086
:100D8C00B4000020C0000020A0000020A40000201F
:100D9C003C000020AC000020000801404400002072
:100DAC0040000020B0000020B800002080B500AF4B
:100DBC007A4B1B68042B00F2E88001A252F823F056
:100DCC00E10D0008970F0008EF0D0008A10E0008B8
:100DDC001D0F0008724B00221A60704B01221A6022
:100DEC00DAE0704B02221A60FFF7AEFA00224FF4E1
:100DFC0080416D4800F017FE00224FF400416A4814
:100E0C0000F011FE00224FF40061674800F00BFE69
:100E1C0000224FF48051644800F005FEFFF7A2F960
:100E2C000346012B0BD1614B1B6801335F4A1360E6
:100E3C005E4B1B68632B02DD5C4B00221A60FFF7D4
:100E4C00A3F90346012B03D1584B1B68584A136076
:100E5C00584B1B68012B0CD14FF48061524800F0A9
:100E6C00FAFD4FF40051504800F0F5FDFA2000F067
:100E7C00C3F9FFF765F90346012B40F08880FA208F
:100E8C0000F0BAF94C4B1B68484A1360434B0322E1
:100E9C001A607CE0434B03221A60FFF755FA0022DC
:100EAC004FF40051404800F0BEFD00224FF40041C9
:100EBC003D4800F0B8FD00224FF480613A4800F044
:100ECC00B2FD00224FF48051374800F0ACFD394B95
:100EDC001B68012B0CD14FF40061334800F0BBFDB3
:100EEC004FF48041304800F0B6FDFA2000F084F950
:100EFC00FFF726F90346012B4BD1FA2000F07CF9C1
:100F0C002E4B1B68294A1360244B04221A6040E0C4
:100F1C00244B04221A60FFF717FA00224FF40051F9
:100F2C00214800F080FD00224FF480411E4800F063
:100F3C007AFD00224FF480611B4800F074FD002202
:100F4C004FF40061184800F06EFD1A4B1B68012B22
:100F5C000CD14FF48051144800F07DFD4FF400414A
:100F6C00114800F078FDFA2000F046F9FFF7E8F898
:100F7C000346012B0FD1FA2000F03EF90B4B002257
:100F8C001A60064B01221A6005E000BF04E000BFA6
:100F9C0002E000BF00E000BF00BF80BDA800002041
:100FAC00A0000020B400002000080140B800002080
:100FBC003C000020C0000020440000204000002025
:100FCC0080B500AF00F02EFA00F016F800F09CF897
:100FDC0000F04EF8074801F08FF9FA2000F026F9DE
:100FEC004FF47A7000F008F9FFF78CFDFFF7DEFE86
:100FFC00FAE700BFCC00002080B590B000AF07F13D
:10100C00180328220021184601F02EFD3B1D00225A
:10101C001A605A609A60DA601A610223BB6101237C
:10102C00BB621023FB6200237B6307F11803184695
:10103C0000F02AFD0346002B01D000F0D7F80F2357
:10104C007B600023BB600023FB6000233B6100231B
:10105C007B613B1D0021184600F096FF0346002BD8
:10106C0001D000F0C3F800BF4037BD4680BD000082
:10107C0080B586B000AF07F1080300221A605A60F1
:10108C009A60DA603B4600221A605A601D4B4FF0A2
:10109C0080421A601B4B41F63F725A60194B00227A
:1010AC009A60184B0922DA60164B00221A61154B14
:1010BC0000229A61134801F0CFF80346002B01D0AF
:1010CC0000F094F84FF48053BB6007F10803194605
:1010DC000C4801F065FA0346002B01D000F086F8AD
:1010EC0000233B6000237B603B461946054801F01A
:1010FC002DFC0346002B01D000F078F800BF183708
:10110C00BD4680BDCC00002080B586B000AF07F195
:10111C00080300221A605A609A60DA60294B9B69B6
:10112C00284A43F004039361264B9B6903F00403A4
:10113C007B607B68234B9B69224A43F008039361D5
:10114C00204B9B6903F008033B603B6800224FF681
:10115C00F0711D4800F067FC00224CF27F011B4827
:10116C0000F061FC4FF6F073BB600123FB600023C1
:10117C003B6102237B6107F108031946124800F01A
:10118C00C1FA4CF27F03BB600123FB6000233B617F
:10119C0002237B6107F1080319460C4800F0B2FAF0
:1011AC004FF46063BB600023FB6001233B6107F1DC
:1011BC0008031946054800F0A5FA00BF1837BD46CC
:1011CC0080BD00BF0010024000080140000C01402F
:1011DC0080B582B000AF786000F042F8FFF710F8ED
:1011EC00FFF726FC00BF0837BD4680BD80B400AFBA
:1011FC0072B600BFFEE7000080B483B000AF786029
:10120C00074B1B687A6892FBF3F3064A1360064B94
:10121C0000221A6000BF0C37BD4680BC704700BF6F
:10122C0048000020BC000020C000002080B483B027
:10123C0000AF7860074B1B687A6892FBF3F3064AA1
:10124C001360064B00221A6000BF0C37BD4680BCF1
:10125C00704700BF48000020C4000020C8000020D8
:10126C0080B400AF114B1B68002B0BDD0F4B1B68C0
:10127C00013B0E4A13600D4B1B68002B02D10C4B2B
:10128C0001221A600B4B1B68002B0BDD094B1B68F2
:10129C00013B084A1360074B1B68002B02D1064B1D
:1012AC0001221A6000BFBD4680BC7047BC00002004
:1012BC00C0000020C4000020C800002080B485B00D
:1012CC0000AF154B9B69144A43F001039361124B19
:1012DC009B6903F00103BB60BB680F4BDB690E4AD3
:1012EC0043F08053D3610C4BDB6903F080537B607C
:1012FC007B680A4B5B68FB60FB6823F0E063FB6078
:10130C00FB6843F08063FB60044AFB68536000BFDA
:10131C001437BD4680BC70470010024000000140ED
:10132C0080B584B000AF78607B681B68B3F1804FE8
:10133C0013D10C4BDB690B4A43F00103D361094B0E
:10134C00DB6903F00103FB60FB68002200211C2019
:10135C0000F0A1F91C2000F0BAF900BF1037BD460F
:10136C0080BD00BF0010024080B400AFFEE780B427
:10137C0000AFFEE780B400AFFEE780B400AFFEE73D
:10138C0080B400AFFEE780B400AF00BFBD4680BCA8
:10139C00704780B400AF00BFBD4680BC704780B4BE
:1013AC0000AF00BFBD4680BC704780B500AF00F0F9
:1013BC007FF800BF80BD000080B500AF024800F090
:1013CC00E7FF00BF80BD00BFCC00002080B400AFA1
:1013DC0000BFBD4680BC70470C480D490D4A002328
:1013EC0002E0D458C4500433C4188C42F9D30A4ACE
:1013FC000A4C002301E013600432A242FBD3FFF736
:10140C00E5FF01F00DFBFFF7DBFD7047000000204E
:10141C0058000020C42A00085800002018010020A1
:10142C00FEE7000080B500AF084B1B68074A43F08D
:10143C0010031360032000F023F90F2000F008F8CC
:10144C00FFF73CFF0023184680BD00BF0020024080
:10145C0080B582B000AF7860124B1A68124B1B78C3
:10146C0019464FF47A73B3FBF1F3B2FBF3F318465E
:10147C0000F03BF90346002B01D001230EE07B6802
:10148C000F2B0AD8002279684FF0FF3000F003F9D7
:10149C00064A7B681360002300E0012318460837D6
:1014AC00BD4680BD4C0000205400002050000020A0
:1014BC0080B400AF054B1B781A46054B1B681344D0
:1014CC00034A136000BFBD4680BC70475400002027
:1014DC001401002080B400AF024B1B681846BD46B7
:1014EC0080BC70471401002080B485B000AF7860D8
:1014FC007B6803F00703FB600C4BDB68BB60BA68CE
:10150C004FF6FF031340BB60FB681A02BB68134322
:10151C0043F0BF6343F40033BB60044ABB68D36041
:10152C0000BF1437BD4680BC704700BF00ED00E023
:10153C0080B400AF044BDB681B0A03F007031846AA
:10154C00BD4680BC704700BF00ED00E080B483B0A6
:10155C0000AF0346FB7197F90730002B0BDBFB79CF
:10156C0003F01F02064997F907305B09012000FAC6
:10157C0002F241F8232000BF0C37BD4680BC7047F7
:10158C0000E100E080B483B000AF03463960FB712A
:10159C0097F90730002B0ADB3B68DAB20C4997F954
:1015AC0007301201D2B20B4483F800230AE03B68E7
:1015BC00DAB20849FB7903F00F03043B1201D2B2F3
:1015CC000B441A7600BF0C37BD4680BC704700BF79
:1015DC0000E100E000ED00E080B489B000AFF860FD
:1015EC00B9607A60FB6803F00703FB61FB69C3F128
:1015FC000703042B28BF0423BB61FB690433062BB0
:10160C0002D9FB69033B00E000237B614FF0FF3202
:10161C00BB6902FA03F3DA43BB681A407B699A4050
:10162C004FF0FF317B6901FA03F3D9437B680B4020
:10163C00134318462437BD4680BC704780B582B032
:10164C0000AF78607B68013BB3F1807F01D301234D
:10165C000FE00A4A7B68013B53600F214FF0FF30CB
:10166C00FFF790FF054B00229A60044B07221A608B
:10167C00002318460837BD4680BD00BF10E000E0CF
:10168C0080B582B000AF78607868FFF72DFF00BF9F
:10169C000837BD4680BD80B586B000AF0346B96043
:1016AC007A60FB7300237B61FFF742FF78617A68F5
:1016BC00B9687869FFF790FF024697F90F30114629
:1016CC001846FFF75FFF00BF1837BD4680BD80B5D9
:1016DC0082B000AF0346FB7197F907301846FFF74D
:1016EC0035FF00BF0837BD4680BD80B582B000AF66
:1016FC0078607868FFF7A2FF034618460837BD46A6
:10170C0080BD000080B48BB000AF786039600023DE
:10171C007B6200233B6248E101227B6A02FA03F3FD
:10172C00FB613B681B68FA691340BB61BA69FB69D2
:10173C009A4240F037813B685B68A34A93425ED083
:10174C00A14A934275D8A14A934258D09F4A9342DA
:10175C006FD89F4A934252D09D4A934269D89D4A72
:10176C0093424CD09B4A934263D89B4A934246D0B7
:10177C00994A93425DD8122B2AD8122B59D801A220
:10178C0052F823F00B180008E5170008F7170008AB
:10179C00391800083F1800083F1800083F180008C7
:1017AC003F1800083F1800083F1800083F180008B1
:1017BC003F1800083F1800083F1800083F180008A1
:1017CC003F1800083F180008ED1700080118000822
:1017DC00824A934213D02CE03B68DB683B6229E0E1
:1017EC003B68DB6804333B6224E03B68DB6808330E
:1017FC003B621FE03B68DB680C333B621AE03B68E2
:10180C009B68002B02D104233B6213E03B689B686E
:10181C00012B05D108233B627B68FA691A6109E048
:10182C0008233B627B68FA695A6103E000233B6240
:10183C0000E000BFBB69FF2B01D87B6801E07B682F
:10184C0004337B61BB69FF2B02D87B6A9B0002E0EF
:10185C007B6A083B9B003B617B691A680F213B69E3
:10186C0001FA03F3DB431A40396A3B6901FA03F3CB
:10187C001A437B691A603B685B6803F08053002B4A
:10188C0000F09080564B9B69554A43F001039361DD
:10189C00534B9B6903F00103BB60BB68514A7B6AE5
:1018AC009B08023352F82330FB607B6A03F003037E
:1018BC009B000F2202FA03F3DB43FA681340FB6030
:1018CC007B68494A93420DD07B68484A934207D0C3
:1018DC007B68474A934201D1022304E0032302E0D0
:1018EC00012300E000237A6A02F003029200934085
:1018FC00FA681343FB603B497B6A9B080233FA6826
:10190C0041F823203B685B6803F48033002B06D03E
:10191C00384B1A683749BB6913430B6006E0354BEB
:10192C001A68BB69DB43334913400B603B685B6847
:10193C0003F40033002B06D02E4B5A682D49BB699B
:10194C0013434B6006E02B4B5A68BB69DB432949B8
:10195C0013404B603B685B6803F48013002B06D08C
:10196C00244B9A682349BB6913438B6006E0214BD7
:10197C009A68BB69DB431F4913408B603B685B680B
:10198C0003F40013002B06D01A4BDA681949BB6913
:10199C001343CB6006E0174BDA68BB69DB43154990
:1019AC001340CB607B6A01337B623B681A687B6AAD
:1019BC0022FA03F3002B7FF4AFAE00BF00BF2C372D
:1019CC00BD4680BC704700BF0000321000003110D3
:1019DC000000221000002110000012100000111055
:1019EC00001002400000014000080140000C0140C2
:1019FC00001001400004014080B485B000AF786055
:101A0C000B467B807B689A687B881340002B02D046
:101A1C000123FB7301E00023FB73FB7B1846143797
:101A2C00BD4680BC704780B483B000AF78600B4675
:101A3C007B8013467B707B78002B03D07A887B6885
:101A4C001A6103E07B881A047B681A6100BF0C37AB
:101A5C00BD4680BC704780B485B000AF78600B4643
:101A6C007B807B68DB68FB607A88FB6813401A0418
:101A7C00FB68D9437B880B401A437B681A6100BF13
:101A8C001437BD4680BC704780B586B000AF786017
:101A9C007B68002B01D101236CE27B681B6803F08F
:101AAC000103002B00F08780924B5B6803F00C0362
:101ABC00042B0CD08F4B5B6803F00C03082B12D15A
:101ACC008C4B5B6803F48033B3F5803F0BD1894BAF
:101ADC001B6803F40033002B6CD07B685B68002B15
:101AEC0068D1012346E27B685B68B3F5803F06D181
:101AFC00804B1B687F4A43F4803313602EE07B6875
:101B0C005B68002B0CD17B4B1B687A4A23F4803327
:101B1C001360784B1B68774A23F4802313601DE015
:101B2C007B685B68B3F5A02F0CD1724B1B68714AB4
:101B3C0043F4802313606F4B1B686E4A43F480336D
:101B4C0013600BE06B4B1B686A4A23F48033136001
:101B5C00684B1B68674A23F4802313607B685B68BF
:101B6C00002B13D0FFF7B6FC386108E0FFF7B2FC8E
:101B7C0002463B69D31A642B01D90323FAE15D4B6E
:101B8C001B6803F40033002BF0D014E0FFF7A2FC29
:101B9C00386108E0FFF79EFC02463B69D31A642BC0
:101BAC0001D90323E6E1534B1B6803F40033002BEC
:101BBC00F0D100E000BF7B681B6803F00203002B30
:101BCC0063D04C4B5B6803F00C03002B0BD0494BE0
:101BDC005B6803F00C03082B1CD1464B5B6803F4C9
:101BEC008033002B16D1434B1B6803F00203002BF0
:101BFC0005D07B681B69012B01D00123BAE13D4B59
:101C0C001B6823F0F8027B685B69DB0039491343DE
:101C1C000B603AE07B681B69002B20D0364B01220D
:101C2C001A60FFF757FC386108E0FFF753FC0246D7
:101C3C003B69D31A022B01D903239BE12D4B1B6863
:101C4C0003F00203002BF0D02A4B1B6823F0F802A0
:101C5C007B685B69DB00274913430B6015E0264B5F
:101C6C0000221A60FFF736FC386108E0FFF732FCFF
:101C7C0002463B69D31A022B01D903237AE11D4B8F
:101C8C001B6803F00203002BF0D17B681B6803F088
:101C9C000803002B3AD07B689B69002B19D0174B9B
:101CAC0001221A60FFF716FC386108E0FFF712FCFE
:101CBC0002463B69D31A022B01D903235AE10D4B7F
:101CCC005B6A03F00203002BF0D0012000F0A6FAAF
:101CDC001CE00A4B00221A60FFF7FCFB38610FE096
:101CEC00FFF7F8FB02463B69D31A022B08D90323F2
:101CFC0040E100BF0010024000004242800442421A
:101D0C009E4B5B6A03F00203002BE9D17B681B68D6
:101D1C0003F00403002B00F0A6800023FB75974B07
:101D2C00DB6903F08053002B0DD1944BDB69934A94
:101D3C0043F08053D361914BDB6903F08053BB605C
:101D4C00BB680123FB758E4B1B6803F48073002B5F
:101D5C0018D18B4B1B688A4A43F480731360FFF7CE
:101D6C00B9FB386108E0FFF7B5FB02463B69D31AB3
:101D7C00642B01D90323FDE0814B1B6803F48073B2
:101D8C00002BF0D07B68DB68012B06D17B4B1B6AE8
:101D9C007A4A43F0010313622DE07B68DB68002B69
:101DAC000CD1764B1B6A754A23F001031362734BFB
:101DBC001B6A724A23F0040313621CE07B68DB6825
:101DCC00052B0CD16D4B1B6A6C4A43F00403136258
:101DDC006A4B1B6A694A43F0010313620BE0674BC1
:101DEC001B6A664A23F001031362644B1B6A634A45
:101DFC0023F0040313627B68DB68002B15D0FFF71C
:101E0C0069FB38610AE0FFF765FB02463B69D31AB0
:101E1C0041F28832934201D90323ABE0574B1B6A42
:101E2C0003F00203002BEED014E0FFF753FB3861F4
:101E3C000AE0FFF74FFB02463B69D31A41F28832A6
:101E4C00934201D9032395E04C4B1B6A03F0020328
:101E5C00002BEED1FB7D012B05D1484BDB69474AAA
:101E6C0023F08053D3617B68DB69002B00F0818009
:101E7C00424B5B6803F00C03082B61D07B68DB6979
:101E8C00022B46D13F4B00221A60FFF723FB38612F
:101E9C0008E0FFF71FFB02463B69D31A022B01D95E
:101EAC00032367E0354B1B6803F00073002BF0D164
:101EBC007B681B6AB3F5803F08D1304B5B6823F419
:101ECC0000327B689B682D4913434B602B4B5B683E
:101EDC0023F474127B68196A7B685B6A0B4327498D
:101EEC0013434B60274B01221A60FFF7F3FA38615A
:101EFC0008E0FFF7EFFA02463B69D31A022B01D92F
:101F0C00032337E01D4B1B6803F00073002BF0D04C
:101F1C002FE01C4B00221A60FFF7DCFA386108E056
:101F2C00FFF7D8FA02463B69D31A022B01D90323D7
:101F3C0020E0124B1B6803F00073002BF0D118E06B
:101F4C007B68DB69012B01D1012313E00B4B5B6830
:101F5C00FB60FB6803F480327B681B6A9A4206D1F3
:101F6C00FB6803F470127B685B6A9A4201D0012310
:101F7C0000E0002318461837BD4680BD0010024013
:101F8C00007000406000424280B584B000AF7860C1
:101F9C0039607B68002B01D10123D0E06A4B1B68B0
:101FAC0003F007033A689A4210D9674B1B6823F079
:101FBC00070265493B6813430B60634B1B6803F0D6
:101FCC0007033A689A4201D00123B8E07B681B688A
:101FDC0003F00203002B20D07B681B6803F0040382
:101FEC00002B05D0594B5B68584A43F4E0635360AF
:101FFC007B681B6803F00803002B05D0534B5B6810
:10200C00524A43F460535360504B5B6823F0F00228
:10201C007B689B684D4913434B607B681B6803F0DE
:10202C000103002B40D07B685B68012B07D1474B29
:10203C001B6803F40033002B15D101237FE07B6870
:10204C005B68022B07D1414B1B6803F00073002B1C
:10205C0009D1012373E03D4B1B6803F00203002BF5
:10206C0001D101236BE0394B5B6823F003027B68E1
:10207C005B68364913434B60FFF72CFAF8600AE0B3
:10208C00FFF728FA0246FB68D31A41F288329342D2
:10209C0001D9032353E02D4B5B6803F00C027B68E2
:1020AC005B689B009A42EBD1274B1B6803F007033C
:1020BC003A689A4210D2244B1B6823F0070222493B
:1020CC003B6813430B60204B1B6803F007033A6813
:1020DC009A4201D0012332E07B681B6803F00403B1
:1020EC00002B08D0194B5B6823F4E0627B68DB683B
:1020FC00164913434B607B681B6803F00803002BE5
:10210C0009D0124B5B6823F460527B681B69DB00BF
:10211C000E4913434B6000F021F802460B4B5B68F1
:10212C001B0903F00F030A49CB5C22FA03F3094A9B
:10213C001360094B1B681846FFF78AF900231846F1
:10214C001037BD4680BD00BF002002400010024089
:10215C00AC2A00084C0000205000002090B48AB03B
:10216C0000AF2A4B3C1D0FCB84E80F0040F201233B
:10217C003B800023FB610023BB6100237B620023B7
:10218C007B6100233B62224B5B68FB61FB6903F0C4
:10219C000C03042B02D0082B03D02DE01D4B3B620B
:1021AC002DE0FB699B0C03F00F0307F1280213448D
:1021BC0013F8243C7B61FB6903F48033002B13D0B0
:1021CC00134B5B685B0C03F0010307F1280213440B
:1021DC0013F8283CBB617B690E4A02FB03F2BB6916
:1021EC00B2FBF3F37B6204E07B690B4A02FB03F363
:1021FC007B627B6A3B6202E0064B3B6200BF3B6A40
:10220C0018462837BD4690BC704700BF9C2A000872
:10221C000010024000127A0000093D0080B485B025
:10222C0000AF78600A4B1B680A4AA2FB03235B0AC7
:10223C007A6802FB03F3FB6000BFFB685A1EFA606E
:10224C00002BF9D100BF00BF1437BD4680BC7047CE
:10225C004C000020D34D621080B582B000AF786086
:10226C007B68002B01D1012341E07B6893F83D3062
:10227C00DBB2002B06D17B68002283F83C20786807
:10228C00FFF74EF87B68022283F83D207B681A68C2
:10229C007B6804331946104600F06AFA7B68012209
:1022AC0083F846207B68012283F83E207B6801225C
:1022BC0083F83F207B68012283F840207B68012251
:1022CC0083F841207B68012283F842207B6801223D
:1022DC0083F843207B68012283F844207B68012229
:1022EC0083F845207B68012283F83D2000231846A3
:1022FC000837BD4680BD000080B485B000AF786063
:10230C007B6893F83D30DBB2012B01D0012335E023
:10231C007B68022283F83D207B681B68DA687B6847
:10232C001B6842F00102DA607B681B68164A934214
:10233C0009D07B681B68B3F1804F04D07B681B68A5
:10234C00124A934211D17B681B689B6803F0070308
:10235C00FB60FB68062B10D07B681B681A687B68D7
:10236C001B6842F001021A6007E07B681B681A6860
:10237C007B681B6842F001021A6000231846143770
:10238C00BD4680BC704700BF002C014000040040DB
:10239C0080B582B000AF78607B681B681B6903F066
:1023AC000203022B22D17B681B68DB6803F002035B
:1023BC00022B1BD17B681B686FF002021A617B68D1
:1023CC0001221A777B681B689B6903F00303002BBF
:1023DC0003D0786800F0B1F905E0786800F0A4F952
:1023EC00786800F0B3F97B6800221A777B681B6869
:1023FC001B6903F00403042B22D17B681B68DB6888
:10240C0003F00403042B1BD17B681B686FF00402E0
:10241C001A617B6802221A777B681B689B6903F43C
:10242C004073002B03D0786800F087F905E07868DA
:10243C0000F07AF9786800F089F97B6800221A7745
:10244C007B681B681B6903F00803082B22D17B688F
:10245C001B68DB6803F00803082B1BD17B681B6827
:10246C006FF008021A617B6804221A777B681B687C
:10247C00DB6903F00303002B03D0786800F05DF9EF
:10248C0005E0786800F050F9786800F05FF97B6837
:10249C0000221A777B681B681B6903F01003102B52
:1024AC0022D17B681B68DB6803F01003102B1BD157
:1024BC007B681B686FF010021A617B6808221A7720
:1024CC007B681B68DB6903F44073002B03D07868CE
:1024DC0000F033F905E0786800F026F9786800F030
:1024EC0035F97B6800221A777B681B681B6903F03F
:1024FC000103012B0ED17B681B68DB6803F0010321
:10250C00012B07D17B681B686FF001021A61786898
:10251C00FEF75EFE7B681B681B6903F08003802B53
:10252C000ED17B681B68DB6803F08003802B07D11E
:10253C007B681B686FF080021A61786800F067FA9C
:10254C007B681B681B6903F04003402B0ED17B6832
:10255C001B68DB6803F04003402B07D17B681B68CA
:10256C006FF040021A61786800F0F9F87B681B681C
:10257C001B6903F02003202B0ED17B681B68DB68E2
:10258C0003F02003202B07D17B681B686FF020021F
:10259C001A61786800F032FA00BF0837BD4680BD7A
:1025AC0080B584B000AF786039607B6893F83C30BC
:1025BC00012B01D10223B3E07B68012283F83C207C
:1025CC007B68022283F83D207B681B689B68FB605C
:1025DC00FB6823F07703FB60FB6823F47F43FB600D
:1025EC007B681B68FA689A603B681B68B3F5005FF0
:1025FC003ED0B3F5005F00F28780B3F5805F00F04A
:10260C008580B3F5805F7FD8702B1AD0702B7BD868
:10261C00602B50D0602B77D8502B3CD0502B73D8DC
:10262C00402B58D0402B6FD8302B64D0302B6BD82C
:10263C00202B60D0202B67D8002B5CD0102B5AD0CD
:10264C0062E07B6818683B6899683B685A683B682D
:10265C00DB6800F05CF97B681B689B68FB60FB68BF
:10266C0043F07703FB607B681B68FA689A604EE066
:10267C007B6818683B6899683B685A683B68DB68FC
:10268C0000F045F97B681B689A687B681B6842F40C
:10269C0080429A603BE07B6818683B6859683B68ED
:1026AC00DB681A4600F0BCF87B681B6850211846A2
:1026BC0000F013F92BE07B6818683B6859683B689D
:1026CC00DB681A4600F0DAF87B681B686021184654
:1026DC0000F003F91BE07B6818683B6859683B689D
:1026EC00DB681A4600F09CF87B681B684021184692
:1026FC0000F0F3F80BE07B681A683B681B6819461E
:10270C00104600F0EAF802E000BF00E000BF7B6872
:10271C00012283F83D207B68002283F83C200023B3
:10272C0018461037BD4680BD80B483B000AF7860CA
:10273C0000BF0C37BD4680BC704780B483B000AF7F
:10274C00786000BF0C37BD4680BC704780B483B046
:10275C0000AF786000BF0C37BD4680BC704780B4BA
:10276C0083B000AF786000BF0C37BD4680BC7047AB
:10277C0080B485B000AF786039607B681B68FB6003
:10278C007B68254A934207D07B68B3F1804F03D016
:10279C007B68224A934208D1FB6823F07003FB60EC
:1027AC003B685B68FA681343FB607B681A4A934288
:1027BC0007D07B68B3F1804F03D07B68174A9342F4
:1027CC0008D1FB6823F44073FB603B68DB68FA6854
:1027DC001343FB60FB6823F080023B685B69134387
:1027EC00FB607B68FA681A603B689A687B68DA62FF
:1027FC003B681A687B689A627B68074A934203D1EC
:10280C003B681A697B681A637B6801225A6100BFB6
:10281C001437BD4680BC7047002C014000040040BA
:10282C0080B487B000AFF860B9607A60FB681B6A4F
:10283C007B61FB681B6A23F00102FB681A62FB6870
:10284C009B693B613B6923F0F0033B617B681B0197
:10285C003A6913433B617B6923F00A037B617A6914
:10286C00BB6813437B61FB683A699A61FB687A69C0
:10287C001A6200BF1C37BD4680BC704780B487B05D
:10288C0000AFF860B9607A60FB681B6A23F0100235
:10289C00FB681A62FB689B697B61FB681B6A3B6186
:1028AC007B6923F470437B617B681B037A69134358
:1028BC007B613B6923F0A0033B61BB681B013A6958
:1028CC0013433B61FB687A699A61FB683A691A6247
:1028DC0000BF1C37BD4680BC704780B485B000AFCC
:1028EC00786039607B689B68FB60FB6823F0700341
:1028FC00FB603A68FB68134343F00703FB607B689B
:10290C00FA689A6000BF1437BD4680BC704780B42B
:10291C0087B000AFF860B9607A603B60FB689B6879
:10292C007B617B6923F47F437B613B681A027B6884
:10293C001A43BB6813437A6913437B61FB687A695A
:10294C009A6000BF1C37BD4680BC704780B485B010
:10295C0000AF786039607B6893F83C30012B01D173
:10296C00022341E07B68012283F83C207B68022231
:10297C0083F83D207B681B685B68FB607B681B6889
:10298C009B68BB60FB6823F07003FB603B681B68B3
:10299C00FA681343FB607B681B68FA685A607B68B3
:1029AC001B68144A934209D07B681B68B3F1804FB3
:1029BC0004D07B681B68104A93420CD1BB6823F08F
:1029CC008003BB603B685B68BA681343BB607B6881
:1029DC001B68BA689A607B68012283F83D207B688B
:1029EC00002283F83C20002318461437BD4680BCD7
:1029FC00704700BF002C01400004004080B483B03D
:102A0C0000AF786000BF0C37BD4680BC704780B407
:102A1C0083B000AF786000BF0C37BD4680BC7047F8
:102A2C0070B500260C4D0D4C641BA410A64209D1A8
:102A3C0000F022F800260A4D0A4C641BA410A64292
:102A4C0005D170BD55F8043B98470136EEE755F8B3
:102A5C00043B98470136F2E7BC2A0008BC2A000860
:102A6C00BC2A0008C02A000803460244934200D145
:102A7C00704703F8011BF9E7F8B500BFF8BC08BCB8
:102A8C009E467047F8B500BFF8BC08BC9E46704720
:102A9C0002030405060708090A0B0C0D0E0F101093
:102AAC0000000000000000000102030406070809F2
:042ABC0031010008DC
:042AC0000D010008FC
:102AC40001000000010000000100000001000000FE
:102AD40001000000010000000100000001000000EE
:102AE40001000000010000000100000001000000DE
:102AF4002C0100002C0100002C0100000500000046
:102B040003000000020000000A0000000024F4009A
:082B14001000000001000000A8
:04000005080013E5F7
:00000001FF
