:020000040800F2
:100000000028002039100008C90F0008CF0F000891
:10001000D50F0008DB0F0008E10F0008000000000A
:10002000000000000000000000000000E70F0008D2
:10003000F30F000800000000FF0F00080B1000087D
:10004000811000088110000881100008811000084C
:10005000811000088110000881100008811000083C
:10006000811000088110000881100008811000082C
:10007000811000088110000881100008811000081C
:10008000811000088110000881100008811000080C
:1000900081100008811000088110000881100008FC
:1000A00081100008811000088110000881100008EC
:1000B00019100008811000080000000081100008DD
:1000C00081100008000000000000000081100008FE
:1000D00000000000811000088110000800000000EE
:1000E0008110000881100008811000080000000045
:1000F0000000000000000000000000000000000000
:0C01000000000000000000005FF808F1A3
:10010C0010B5054C237833B9044B13B10448AFF345
:10011C0000800123237010BD4C0000200000000063
:10012C00A826000808B5034B1BB103490348AFF3DD
:10013C00008008BD0000000050000020A826000828
:10014C0080B400AF064B1B68012B04D1044B00227A
:10015C001A60012300E000231846BD4680BC70479E
:10016C006800002080B483B000AF78607B68022BFD
:10017C0011D07B68022B12DC7B68002B03D07B68D0
:10018C00012B04D00BE0094B01221A6008E0084B4C
:10019C0001221A6004E0074B01221A6000E000BF44
:1001AC0000BF0C37BD4680BC704700BF6800002004
:1001BC006C0000207000002080B582B000AF0023DE
:1001CC007B6088E0484A7B6852F8232047497B686B
:1001DC0041F82320464A7B6852F8232042497B6829
:1001EC0041F823207B68002B0BD14FF40071414860
:1001FC0001F02CFA034619463D4A7B6842F823105D
:10020C001CE07B68012B0BD14FF48061394801F065
:10021C001DFA03461946364A7B6842F823100DE056
:10022C007B68022B0AD14FF40061324801F00EFAC0
:10023C00034619462E4A7B6842F823102B4A7B68EA
:10024C0052F8232028497B6851F823309A423FD139
:10025C00254A7B6852F8232025497B6851F82330C6
:10026C009A4235D1244A7B6852F8232020497B6876
:10027C0051F823309A4217D01D4A7B6852F823203C
:10028C001D497B6841F82320194A7B6852F82330BA
:10029C00002B1DD17868FFF765FF184A7B684FF477
:1002AC00967142F8231013E0144A7B6852F82330FD
:1002BC005A1E12497B6841F82320104A7B6852F879
:1002CC002330002B04D10C4A7B68012142F8231007
:1002DC007B6801337B607B68022B7FF773AF00BFB9
:1002EC0000BF0837BD4680BD0C0000200000002078
:1002FC0018000020000C01402400002030000020D9
:10030C0080B400AF3D4B1B683D4A13603D4B1B68EE
:10031C003B4A53603C4B1B68394A93603A4B1B6811
:10032C00013B032B5FD801A252F823F049030008CC
:10033C00570300088B030008BF030008304B002252
:10034C00DA602F4B00221A6154E0304B1B68304AA4
:10035C0082FB03129210DB17D31A294AD3602B4B62
:10036C0019682B4B83FB01239A10CB17D21A134617
:10037C009B0013445B00CA1A214B1A613AE0254BCF
:10038C001B68234A82FB03129210DB17D31A1C4AF8
:10039C00D360204B19681E4B83FB01239A10CB179B
:1003AC00D21A13469B0013445B00CA1A144B1A61F1
:1003BC0020E0194B1B68164A82FB03129210DB17C4
:1003CC00D31A0F4AD360144B1968114B83FB0123CA
:1003DC009A10CB17D21A13469B0013445B00CA1A0F
:1003EC00074B1A6106E0064B0022DA60044B002230
:1003FC001A6100BF00BFBD4680BC7047940000204E
:10040C0074000020980000209C000020A000002018
:10041C0067666666A8000020A400002080B582B044
:10042C0000AF78607B68042B00F2B38001A252F815
:10043C0023F000BF5504000897040008D9040008F5
:10044C001B0500085D05000800222021534801F01F
:10045C0014F901224021514801F00FF901228021A9
:10046C004E4801F00AF901224FF480714B4801F01B
:10047C0004F901224FF40071484801F0FEF8484B92
:10048C001B68184600F08EF884E0012220214348B6
:10049C0001F0F3F800224021404801F0EEF801226F
:1004AC0080213E4801F0E9F801224FF480713B486D
:1004BC0001F0E3F801224FF40071384801F0DDF847
:1004CC00374B5B68184600F06DF863E00122202181
:1004DC00324801F0D2F801224021304801F0CDF829
:1004EC00002280212D4801F0C8F801224FF48071C0
:1004FC002A4801F0C2F801224FF40071274801F09C
:10050C00BCF8274B9B68184600F04CF842E00122DF
:10051C002021224801F0B1F8012240211F4801F0AE
:10052C00ACF8012280211D4801F0A7F800224FF4FD
:10053C0080711A4801F0A1F801224FF4007117489C
:10054C0001F09BF8164BDB68184600F02BF821E005
:10055C0001222021114801F090F8012240210F487E
:10056C0001F08BF8012280210C4801F086F8012261
:10057C004FF48071094801F080F800224FF40071AB
:10058C00064801F07AF8064B1B69184600F00AF889
:10059C0000E000BF00BF0837BD4680BD0008014029
:1005AC007400002080B582B000AF78607B68092BA6
:1005BC0000F2808101A252F823F000BFF10500087F
:1005CC003906000881060008C90600081107000852
:1005DC0059070008A1070008E907000831080008BE
:1005EC007908000800220121C64801F046F80022D3
:1005FC000221C44801F041F800220421C14801F055
:10060C003CF800220821BF4801F037F800221021E5
:10061C00BC4801F032F800222021BA4801F02DF834
:10062C0001224021B74801F028F867E1012201219D
:10063C00B44801F022F800220221B24801F01DF862
:10064C0000220421AF4801F018F801220821AD481E
:10065C0001F013F801221021AA4801F00EF8012232
:10066C002021A84801F009F801224021A54801F0F9
:10067C0004F843E100220121A24800F0FEFF002211
:10068C000221A04800F0F9FF012204219D4800F04E
:10069C00F4FF002208219B4800F0EFFF00221021FC
:1006AC00984800F0EAFF01222021964800F0E5FF6F
:1006BC0000224021934800F0E0FF1FE100220121BD
:1006CC00904800F0DAFF002202218E4800F0D5FF9E
:1006DC00002204218B4800F0D0FF00220821894819
:1006EC0000F0CBFF01221021864800F0C6FF01224A
:1006FC002021844800F0C1FF00224021814800F0F5
:10070C00BCFFFBE0012201217E4800F0B6FF002275
:10071C0002217C4800F0B1FF00220421794800F04E
:10072C00ACFF01220821774800F0A7FF012210211D
:10073C00744800F0A2FF00222021724800F09DFFB7
:10074C00002240216F4800F098FFD7E000220121E1
:10075C006C4800F092FF012202216A4800F08DFFE4
:10076C0000220421674800F088FF00220821654818
:10077C0000F083FF01221021624800F07EFF00226E
:10078C002021604800F079FF002240215D4800F0F4
:10079C0074FFB3E0002201215A4800F06EFF0122E1
:1007AC000221584800F069FF00220421554800F04E
:1007BC0064FF00220821534800F05FFF0022102143
:1007CC00504800F05AFF002220214E4800F055FFFF
:1007DC00002240214B4800F050FF8FE00022012105
:1007EC00484800F04AFF00220221464800F045FF2D
:1007FC0000220421434800F040FF01220821414817
:10080C0000F03BFF012210213E4800F036FF012290
:10081C0020213C4800F031FF01224021394800F0F2
:10082C002CFF6BE000220121364800F026FF00224D
:10083C000221344800F021FF00220421314800F04D
:10084C001CFF002208212F4800F017FF0022102166
:10085C002C4800F012FF002220212A4800F00DFF46
:10086C0000224021274800F008FF47E00022012128
:10087C00244800F002FF00220221224800F0FDFE75
:10088C00002204211F4800F0F8FE002208211D4818
:10089C0000F0F3FE012210211A4800F0EEFE0022B7
:1008AC002021184800F0E9FE00224021154800F0F4
:1008BC00E4FE23E000220121124800F0DEFE0022BB
:1008CC000221104800F0D9FE002204210D4800F04E
:1008DC00D4FE002208210B4800F0CFFE002210218C
:1008EC00084800F0CAFE00222021064800F0C5FE90
:1008FC0000224021034800F0C0FE00BF00BF0837B3
:10090C00BD4680BD000C014080B500AF234B1B6879
:10091C00012B40D1224B1B68002B09D1C82000F0C1
:10092C00AFFA0120FFF77AFD1D4B01221A6032E06D
:10093C001B4B1B68012B09D1C82000F0A1FA022027
:10094C00FFF76CFD164B02221A6024E0144B1B6857
:10095C00022B09D1C82000F093FA0320FFF75EFDAB
:10096C000F4B03221A6016E00D4B1B68032B09D1A9
:10097C00C82000F085FA0420FFF750FD084B042234
:10098C001A6008E0C82000F07BFA0020FFF746FD53
:10099C00034B00221A6000BF80BD00BFB8000020CE
:1009AC008800002080B500AF6A4B1B68012B40F01B
:1009BC00CC80694B01221A60FFF7A2FC674B1B68C5
:1009CC00012B40F0B980664B1B680133644A1360FD
:1009DC00634B1B68052B4DDC614B1B68C3F1050396
:1009EC00604A136001224FF480615F4800F045FEBD
:1009FC0000224FF400615C4800F03FFE00224FF4EF
:100A0C008051594800F039FE554B1B68022B18DCFD
:100A1C00534B1B68C3F10203544A136000224FF47A
:100A2C000051514800F029FE01224FF480414E48FC
:100A3C0000F023FE00224FF400414B4800F01DFE55
:100A4C006FE0474B1B68C3F10503484A1360002253
:100A5C004FF40051444800F010FE00224FF4804146
:100A6C00414800F00AFE01224FF400413E4800F0DC
:100A7C0004FE56E03A4B1B68072B30DC384B1B68E6
:100A8C00C3F10703374A136000224FF480613648E4
:100A9C0000F0F3FD01224FF40061334800F0EDFD4E
:100AAC0000224FF48051304800F0E7FD2C4B1B68BE
:100ABC00C3F10A032D4A136001224FF400512A4856
:100ACC0000F0DBFD00224FF48041274800F0D5FDFB
:100ADC0000224FF40041244800F0CFFD21E0204BD0
:100AEC001B680A2B1DDC1E4B1B68C3F10A031D4A35
:100AFC00136000224FF480611B4800F0BEFD002201
:100B0C004FF40061184800F0B8FD01224FF48051F9
:100B1C00154800F0B2FD124B1B68C3F10A03134ACF
:100B2C0013600F4B1B68092B02DD0D4B00221A6062
:100B3C004FF47A7000F08AF9FFF702FB0346012BA1
:100B4C0005D1044B02221A6001E000BF00E000BF97
:100B5C0000BF80BD900000209C000020B000002051
:100B6C008C00002094000020000801409800002018
:100B7C0080B500AF254B1B68042B3ED801A252F860
:100B8C0023F000BFA50B0008070C0008B30B0008EE
:100B9C00CF0B0008EB0B00081D4B00221A601B4BFF
:100BAC0001221A6030E01B4B02221A60FFF7A8FBEF
:100BBC00FFF7C6FA0346012B21D1144B03221A600E
:100BCC001DE0144B03221A60FFF79AFBFFF7B8FAEB
:100BDC000346012B15D10D4B04221A6011E00D4B6D
:100BEC0004221A60FFF78CFBFFF7AAFA0346012BCD
:100BFC0009D1064B01221A6005E000BF04E000BFDA
:100C0C0002E000BF00E000BF00BF80BD90000020EC
:100C1C008C0000209C00002080B500AF00F02CFA66
:100C2C0000F016F800F09CF800F04EF8074801F0C0
:100C3C0075F9FA2000F024F94FF47A7000F006F9F7
:100C4C00FFF7B0FEFFF794FFFAE700BFBC000020EF
:100C5C0080B590B000AF07F1180328220021184688
:100C6C0001F014FD3B1D00221A605A609A60DA6094
:100C7C001A610223BB610123BB621023FB620023B8
:100C8C007B6307F11803184600F010FD0346002B98
:100C9C0001D000F0D5F80F237B600023BB6000234C
:100CAC00FB6000233B6100237B613B1D0021184648
:100CBC0000F07CFF0346002B01D000F0C1F800BF10
:100CCC004037BD4680BD000080B586B000AF07F14F
:100CDC00080300221A605A609A60DA603B460022D0
:100CEC001A605A601D4B4FF080421A601B4B41F644
:100CFC003F725A60194B00229A60184B0922DA6035
:100D0C00164B00221A61154B00229A61134801F010
:100D1C00B5F80346002B01D000F092F84FF4805345
:100D2C00BB6007F1080319460C4801F04BFA034667
:100D3C00002B01D000F084F800233B6000237B6083
:100D4C003B461946054801F013FC0346002B01D025
:100D5C0000F076F800BF1837BD4680BDBC000020FF
:100D6C0080B586B000AF07F1080300221A605A6004
:100D7C009A60DA60284B9B69274A43F0040393611D
:100D8C00254B9B6903F004037B607B68224B9B69BA
:100D9C00214A43F0080393611F4B9B6903F008033E
:100DAC003B603B6800224FF6F0711C4800F065FC7C
:100DBC0000227F211A4800F060FC4FF6F073BB60F4
:100DCC000123FB6000233B6102237B6107F10803D5
:100DDC001946124800F0C0FA7F23BB600123FB6068
:100DEC0000233B6102237B6107F1080319460C4881
:100DFC0000F0B2FA4FF46063BB600023FB60012388
:100E0C003B6107F108031946054800F0A5FA00BF3D
:100E1C001837BD4680BD00BF0010024000080140DD
:100E2C00000C014080B582B000AF786000F042F851
:100E3C00FFF7C2F9FFF768FD00BF0837BD4680BD5C
:100E4C0080B400AF72B600BFFEE7000080B483B080
:100E5C0000AF7860074B1B687A6892FBF3F3064A85
:100E6C001360064B00221A6000BF0C37BD4680BCD5
:100E7C00704700BF3C000020AC000020B0000020F8
:100E8C0080B483B000AF7860074B1B687A6892FB24
:100E9C00F3F3064A1360064B00221A6000BF0C37AE
:100EAC00BD4680BC704700BF3C000020B400002051
:100EBC00B800002080B400AF114B1B68002B0BDD79
:100ECC000F4B1B68013B0E4A13600D4B1B68002B2C
:100EDC0002D10C4B01221A600B4B1B68002B0BDD53
:100EEC00094B1B68013B084A1360074B1B68002B1E
:100EFC0002D1064B01221A6000BFBD4680BC704770
:100F0C00AC000020B0000020B4000020B80000208D
:100F1C0080B485B000AF154B9B69144A43F00103B4
:100F2C009361124B9B6903F00103BB60BB680F4BD1
:100F3C00DB690E4A43F08053D3610C4BDB6903F041
:100F4C0080537B607B680A4B5B68FB60FB6823F01B
:100F5C00E063FB60FB6843F08063FB60044AFB6862
:100F6C00536000BF1437BD4680BC70470010024070
:100F7C000000014080B584B000AF78607B681B68CE
:100F8C00B3F1804F13D10C4BDB690B4A43F00103D7
:100F9C00D361094BDB6903F00103FB60FB680022A2
:100FAC0000211C2000F0A1F91C2000F0BAF900BFB0
:100FBC001037BD4680BD00BF0010024080B400AFAA
:100FCC00FEE780B400AFFEE780B400AFFEE780B46C
:100FDC0000AFFEE780B400AFFEE780B400AF00BF07
:100FEC00BD4680BC704780B400AF00BFBD4680BC1E
:100FFC00704780B400AF00BFBD4680BC704780B561
:10100C0000AF00F07FF800BF80BD000080B500AFDE
:10101C00024800F0CFFF00BF80BD00BFBC00002025
:10102C0080B400AF00BFBD4680BC70470C480D4972
:10103C000D4A002302E0D458C4500433C4188C4227
:10104C00F9D30A4A0A4C002301E013600432A2428D
:10105C00FBD3FFF7E5FF01F0F5FAFFF7DDFD704775
:10106C00000000204C000020E82600084C00002066
:10107C0008010020FEE7000080B500AF084B1B689C
:10108C00074A43F010031360032000F023F90F20EC
:10109C0000F008F8FFF73CFF0023184680BD00BFA6
:1010AC000020024080B582B000AF7860124B1A6805
:1010BC00124B1B7819464FF47A73B3FBF1F3B2FB66
:1010CC00F3F3184600F03BF90346002B01D0012343
:1010DC000EE07B680F2B0AD8002279684FF0FF30A6
:1010EC0000F003F9064A7B681360002300E001233B
:1010FC0018460837BD4680BD40000020480000203F
:10110C004400002080B400AF054B1B781A46054BF9
:10111C001B681344034A136000BFBD4680BC704774
:10112C00480000200401002080B400AF024B1B6873
:10113C001846BD4680BC70470401002080B485B0C1
:10114C0000AF78607B6803F00703FB600C4BDB6837
:10115C00BB60BA684FF6FF031340BB60FB681A0212
:10116C00BB68134343F0BF6343F40033BB60044AD2
:10117C00BB68D36000BF1437BD4680BC704700BF4E
:10118C0000ED00E080B400AF044BDB681B0A03F0F9
:10119C0007031846BD4680BC704700BF00ED00E059
:1011AC0080B483B000AF0346FB7197F90730002B76
:1011BC000BDBFB7903F01F02064997F907305B093B
:1011CC00012000FA02F241F8232000BF0C37BD4683
:1011DC0080BC704700E100E080B483B000AF0346F0
:1011EC003960FB7197F90730002B0ADB3B68DAB2E8
:1011FC000C4997F907301201D2B20B4483F8002343
:10120C000AE03B68DAB20849FB7903F00F03043BB0
:10121C001201D2B20B441A7600BF0C37BD4680BC0B
:10122C00704700BF00E100E000ED00E080B489B041
:10123C0000AFF860B9607A60FB6803F00703FB61EC
:10124C00FB69C3F10703042B28BF0423BB61FB69B3
:10125C000433062B02D9FB69033B00E000237B61BE
:10126C004FF0FF32BB6902FA03F3DA43BB681A4052
:10127C007B699A404FF0FF317B6901FA03F3D94344
:10128C007B680B40134318462437BD4680BC70471F
:10129C0080B582B000AF78607B68013BB3F1807F92
:1012AC0001D301230FE00A4A7B68013B53600F21F5
:1012BC004FF0FF30FFF790FF054B00229A60044B74
:1012CC0007221A60002318460837BD4680BD00BFB0
:1012DC0010E000E080B582B000AF78607868FFF76E
:1012EC002DFF00BF0837BD4680BD80B586B000AF6E
:1012FC000346B9607A60FB7300237B61FFF742FF02
:10130C0078617A68B9687869FFF790FF024697F9B7
:10131C000F3011461846FFF75FFF00BF1837BD4668
:10132C0080BD80B582B000AF0346FB7197F90730E2
:10133C001846FFF735FF00BF0837BD4680BD80B5A6
:10134C0082B000AF78607868FFF7A2FF03461846BA
:10135C000837BD4680BD000080B48BB000AF78600C
:10136C00396000237B6200233B6248E101227B6AE7
:10137C0002FA03F3FB613B681B68FA691340BB611B
:10138C00BA69FB699A4240F037813B685B68A34AB3
:10139C0093425ED0A14A934275D8A14A934258D049
:1013AC009F4A93426FD89F4A934252D09D4A934290
:1013BC0069D89D4A93424CD09B4A934263D89B4A2E
:1013CC00934246D0994A93425DD8122B2AD8122BBD
:1013DC0059D801A252F823F05F1400083914000800
:1013EC004B1400088D140008931400089314000883
:1013FC009314000893140008931400089314000825
:10140C009314000893140008931400089314000814
:10141C009314000893140008931400084114000856
:10142C0055140008824A934213D02CE03B68DB68C9
:10143C003B6229E03B68DB6804333B6224E03B6899
:10144C00DB6808333B621FE03B68DB680C333B62B4
:10145C001AE03B689B68002B02D104233B6213E02B
:10146C003B689B68012B05D108233B627B68FA69BA
:10147C001A6109E008233B627B68FA695A6103E050
:10148C0000233B6200E000BFBB69FF2B01D87B68E7
:10149C0001E07B6804337B61BB69FF2B02D87B6A5C
:1014AC009B0002E07B6A083B9B003B617B691A68EE
:1014BC000F213B6901FA03F3DB431A40396A3B699C
:1014CC0001FA03F31A437B691A603B685B6803F00B
:1014DC008053002B00F09080564B9B69554A43F08B
:1014EC0001039361534B9B6903F00103BB60BB6821
:1014FC00514A7B6A9B08023352F82330FB607B6AAB
:10150C0003F003039B000F2202FA03F3DB43FA6898
:10151C001340FB607B68494A93420DD07B68484A74
:10152C00934207D07B68474A934201D1022304E0DF
:10153C00032302E0012300E000237A6A02F0030295
:10154C0092009340FA681343FB603B497B6A9B080B
:10155C000233FA6841F823203B685B6803F480335C
:10156C00002B06D0384B1A683749BB6913430B6004
:10157C0006E0354B1A68BB69DB43334913400B60FB
:10158C003B685B6803F40033002B06D02E4B5A6883
:10159C002D49BB6913434B6006E02B4B5A68BB6962
:1015AC00DB43294913404B603B685B6803F48013B1
:1015BC00002B06D0244B9A682349BB6913438B60DC
:1015CC0006E0214B9A68BB69DB431F4913408B60D3
:1015DC003B685B6803F40013002B06D01A4BDA68E7
:1015EC001949BB691343CB6006E0174BDA68BB693A
:1015FC00DB4315491340CB607B6A01337B623B684C
:10160C001A687B6A22FA03F3002B7FF4AFAE00BF9B
:10161C0000BF2C37BD4680BC704700BF00003210A5
:10162C0000003110000022100000211000001210E8
:10163C0000001110001002400000014000080140A1
:10164C00000C0140001001400004014080B485B042
:10165C0000AF78600B467B807B689A687B88134070
:10166C00002B02D00123FB7301E00023FB73FB7BF7
:10167C0018461437BD4680BC704780B483B000AFA9
:10168C0078600B467B8013467B707B78002B03D0F5
:10169C007A887B681A6103E07B881A047B681A617C
:1016AC0000BF0C37BD4680BC7047000080B586B0CB
:1016BC0000AF78607B68002B01D101236CE27B6862
:1016CC001B6803F00103002B00F08780924B5B68D2
:1016DC0003F00C03042B0CD08F4B5B6803F00C0352
:1016EC00082B12D18C4B5B6803F48033B3F5803F2D
:1016FC000BD1894B1B6803F40033002B6CD07B6837
:10170C005B68002B68D1012346E27B685B68B3F50C
:10171C00803F06D1804B1B687F4A43F480331360B3
:10172C002EE07B685B68002B0CD17B4B1B687A4AE4
:10173C0023F480331360784B1B68774A23F480239F
:10174C0013601DE07B685B68B3F5A02F0CD1724B66
:10175C001B68714A43F4802313606F4B1B686E4AFD
:10176C0043F4803313600BE06B4B1B686A4A23F421
:10177C0080331360684B1B68674A23F48023136023
:10178C007B685B68002B13D0FFF7CEFC386108E058
:10179C00FFF7CAFC02463B69D31A642B01D9032319
:1017AC00FAE15D4B1B6803F40033002BF0D014E01E
:1017BC00FFF7BAFC386108E0FFF7B6FC02463B695C
:1017CC00D31A642B01D90323E6E1534B1B6803F4B2
:1017DC000033002BF0D100E000BF7B681B6803F0E6
:1017EC000203002B63D04C4B5B6803F00C03002B03
:1017FC000BD0494B5B6803F00C03082B1CD1464BF8
:10180C005B6803F48033002B16D1434B1B6803F049
:10181C000203002B05D07B681B69012B01D001232F
:10182C00BAE13D4B1B6823F0F8027B685B69DB0077
:10183C00394913430B603AE07B681B69002B20D0BD
:10184C00364B01221A60FFF76FFC386108E0FFF796
:10185C006BFC02463B69D31A022B01D903239BE193
:10186C002D4B1B6803F00203002BF0D02A4B1B6896
:10187C0023F0F8027B685B69DB00274913430B609C
:10188C0015E0264B00221A60FFF74EFC386108E089
:10189C00FFF74AFC02463B69D31A022B01D90323FA
:1018AC007AE11D4B1B6803F00203002BF0D17B681F
:1018BC001B6803F00803002B3AD07B689B69002B54
:1018CC0019D0174B01221A60FFF72EFC386108E083
:1018DC00FFF72AFC02463B69D31A022B01D90323DA
:1018EC005AE10D4B5B6A03F00203002BF0D0012090
:1018FC0000F0A6FA1CE00A4B00221A60FFF714FC59
:10190C0038610FE0FFF710FC02463B69D31A022B3B
:10191C0008D9032340E100BF0010024000004242FE
:10192C00800442429E4B5B6A03F00203002BE9D118
:10193C007B681B6803F00403002B00F0A6800023D7
:10194C00FB75974BDB6903F08053002B0DD1944B47
:10195C00DB69934A43F08053D361914BDB6903F00D
:10196C008053BB60BB680123FB758E4B1B6803F473
:10197C008073002B18D18B4B1B688A4A43F48073FD
:10198C001360FFF7D1FB386108E0FFF7CDFB02468F
:10199C003B69D31A642B01D90323FDE0814B1B68EF
:1019AC0003F48073002BF0D07B68DB68012B06D12D
:1019BC007B4B1B6A7A4A43F0010313622DE07B6870
:1019CC00DB68002B0CD1764B1B6A754A23F00103A4
:1019DC001362734B1B6A724A23F0040313621CE0FC
:1019EC007B68DB68052B0CD16D4B1B6A6C4A43F092
:1019FC00040313626A4B1B6A694A43F001031362C6
:101A0C000BE0674B1B6A664A23F001031362644BBD
:101A1C001B6A634A23F0040313627B68DB68002BA8
:101A2C0015D0FFF781FB38610AE0FFF77DFB02461A
:101A3C003B69D31A41F28832934201D90323ABE0BC
:101A4C00574B1B6A03F00203002BEED014E0FFF798
:101A5C006BFB38610AE0FFF767FB02463B69D31A60
:101A6C0041F28832934201D9032395E04C4B1B6A17
:101A7C0003F00203002BEED1FB7D012B05D1484B6B
:101A8C00DB69474A23F08053D3617B68DB69002B09
:101A9C0000F08180424B5B6803F00C03082B61D093
:101AAC007B68DB69022B46D13F4B00221A60FFF7A3
:101ABC003BFB386108E0FFF737FB02463B69D31A62
:101ACC00022B01D9032367E0354B1B6803F000732D
:101ADC00002BF0D17B681B6AB3F5803F08D1304BEB
:101AEC005B6823F400327B689B682D4913434B6081
:101AFC002B4B5B6823F474127B68196A7B685B6AF6
:101B0C000B43274913434B60274B01221A60FFF705
:101B1C000BFB386108E0FFF707FB02463B69D31A61
:101B2C00022B01D9032337E01D4B1B6803F0007314
:101B3C00002BF0D02FE01C4B00221A60FFF7F4FAB8
:101B4C00386108E0FFF7F0FA02463B69D31A022B22
:101B5C0001D9032320E0124B1B6803F00073002B08
:101B6C00F0D118E07B68DB69012B01D1012313E074
:101B7C000B4B5B68FB60FB6803F480327B681B6A71
:101B8C009A4206D1FB6803F470127B685B6A9A4236
:101B9C0001D0012300E0002318461837BD4680BD54
:101BAC0000100240007000406000424280B584B0DA
:101BBC0000AF786039607B68002B01D10123D0E045
:101BCC006A4B1B6803F007033A689A4210D9674BBB
:101BDC001B6823F0070265493B6813430B60634B9A
:101BEC001B6803F007033A689A4201D00123B8E05E
:101BFC007B681B6803F00203002B20D07B681B68FA
:101C0C0003F00403002B05D0594B5B68584A43F48E
:101C1C00E06353607B681B6803F00803002B05D05E
:101C2C00534B5B68524A43F460535360504B5B68B0
:101C3C0023F0F0027B689B684D4913434B607B6833
:101C4C001B6803F00103002B40D07B685B68012B01
:101C5C0007D1474B1B6803F40033002B15D101232C
:101C6C007FE07B685B68022B07D1414B1B6803F05C
:101C7C000073002B09D1012373E03D4B1B6803F06B
:101C8C000203002B01D101236BE0394B5B6823F07D
:101C9C0003027B685B68364913434B60FFF744FAD9
:101CAC00F8600AE0FFF740FA0246FB68D31A41F2EB
:101CBC008832934201D9032353E02D4B5B6803F028
:101CCC000C027B685B689B009A42EBD1274B1B682C
:101CDC0003F007033A689A4210D2244B1B6823F096
:101CEC00070222493B6813430B60204B1B6803F02F
:101CFC0007033A689A4201D0012332E07B681B68E3
:101D0C0003F00403002B08D0194B5B6823F4E0624A
:101D1C007B68DB68164913434B607B681B6803F0D8
:101D2C000803002B09D0124B5B6823F460527B68CC
:101D3C001B69DB000E4913434B6000F021F802468F
:101D4C000B4B5B681B0903F00F030A49CB5C22FAAF
:101D5C0003F3094A1360094B1B681846FFF7A2F9F5
:101D6C00002318461037BD4680BD00BF002002403E
:101D7C0000100240D0260008400000204400002043
:101D8C0090B48AB000AF2A4B3C1D0FCB84E80F00F7
:101D9C0040F201233B800023FB610023BB61002345
:101DAC007B6200237B6100233B62224B5B68FB61FF
:101DBC00FB6903F00C03042B02D0082B03D02DE09D
:101DCC001D4B3B622DE0FB699B0C03F00F0307F1ED
:101DDC002802134413F8243C7B61FB6903F4803321
:101DEC00002B13D0134B5B685B0C03F0010307F162
:101DFC002802134413F8283CBB617B690E4A02FB92
:101E0C0003F2BB69B2FBF3F37B6204E07B690B4A20
:101E1C0002FB03F37B627B6A3B6202E0064B3B6294
:101E2C0000BF3B6A18462837BD4690BC704700BFC0
:101E3C00C02600080010024000127A0000093D0084
:101E4C0080B485B000AF78600A4B1B680A4AA2FBCD
:101E5C0003235B0A7A6802FB03F3FB6000BFFB6899
:101E6C005A1EFA60002BF9D100BF00BF1437BD46D3
:101E7C0080BC704740000020D34D621080B582B00A
:101E8C0000AF78607B68002B01D1012341E07B68B7
:101E9C0093F83D30DBB2002B06D17B68002283F82F
:101EAC003C207868FFF766F87B68022283F83D20B7
:101EBC007B681A687B6804331946104600F06AFA8E
:101ECC007B68012283F846207B68012283F83E2040
:101EDC007B68012283F83F207B68012283F8402035
:101EEC007B68012283F841207B68012283F8422021
:101EFC007B68012283F843207B68012283F844200D
:101F0C007B68012283F845207B68012283F83D2001
:101F1C00002318460837BD4680BD000080B485B04C
:101F2C0000AF78607B6893F83D30DBB2012B01D0B9
:101F3C00012335E07B68022283F83D207B681B6817
:101F4C00DA687B681B6842F00102DA607B681B6808
:101F5C00164A934209D07B681B68B3F1804F04D0BA
:101F6C007B681B68124A934211D17B681B689B6883
:101F7C0003F00703FB60FB68062B10D07B681B6823
:101F8C001A687B681B6842F001021A6007E07B68E4
:101F9C001B681A687B681B6842F001021A600023F8
:101FAC0018461437BD4680BC704700BF002C01405A
:101FBC000004004080B582B000AF78607B681B687D
:101FCC001B6903F00203022B22D17B681B68DB68C0
:101FDC0003F00203022B1BD17B681B686FF002021B
:101FEC001A617B6801221A777B681B689B6903F076
:101FFC000303002B03D0786800F0B1F905E0786892
:10200C0000F0A4F9786800F0B3F97B6800221A7725
:10201C007B681B681B6903F00403042B22D17B68CB
:10202C001B68DB6803F00403042B1BD17B681B6863
:10203C006FF004021A617B6802221A777B681B68B6
:10204C009B6903F44073002B03D0786800F087F988
:10205C0005E0786800F07AF9786800F089F97B6817
:10206C0000221A777B681B681B6903F00803082B96
:10207C0022D17B681B68DB6803F00803082B1BD19B
:10208C007B681B686FF008021A617B6804221A7760
:10209C007B681B68DB6903F00303002B03D07868B3
:1020AC0000F05DF905E0786800F050F9786800F010
:1020BC005FF97B6800221A777B681B681B6903F049
:1020CC001003102B22D17B681B68DB6803F0100314
:1020DC00102B1BD17B681B686FF010021A617B6898
:1020EC0008221A777B681B68DB6903F44073002BAA
:1020FC0003D0786800F033F905E0786800F026F931
:10210C00786800F035F97B6800221A777B681B68C9
:10211C001B6903F00103012B0ED17B681B68DB6884
:10212C0003F00103012B07D17B681B686FF00102E0
:10213C001A617868FEF776FE7B681B681B6903F0F2
:10214C008003802B0ED17B681B68DB6803F0800357
:10215C00802B07D17B681B686FF080021A6178684E
:10216C0000F067FA7B681B681B6903F04003402B87
:10217C000ED17B681B68DB6803F04003402B07D152
:10218C007B681B686FF040021A61786800F0F9F800
:10219C007B681B681B6903F02003202B0ED17B6826
:1021AC001B68DB6803F02003202B07D17B681B68BE
:1021BC006FF020021A61786800F032FA00BF08371D
:1021CC00BD4680BD80B584B000AF786039607B6857
:1021DC0093F83C30012B01D10223B3E07B68012240
:1021EC0083F83C207B68022283F83D207B681B68C7
:1021FC009B68FB60FB6823F07703FB60FB6823F4B0
:10220C007F43FB607B681B68FA689A603B681B68BD
:10221C00B3F5005F3ED0B3F5005F00F28780B3F5F5
:10222C00805F00F08580B3F5805F7FD8702B1AD06B
:10223C00702B7BD8602B50D0602B77D8502B3CD098
:10224C00502B73D8402B58D0402B6FD8302B64D0E8
:10225C00302B6BD8202B60D0202B67D8002B5CD078
:10226C00102B5AD062E07B6818683B6899683B6811
:10227C005A683B68DB6800F05CF97B681B689B68FC
:10228C00FB60FB6843F07703FB607B681B68FA68B4
:10229C009A604EE07B6818683B6899683B685A689E
:1022AC003B68DB6800F045F97B681B689A687B68C3
:1022BC001B6842F480429A603BE07B6818683B687C
:1022CC0059683B68DB681A4600F0BCF87B681B68F1
:1022DC005021184600F013F92BE07B6818683B6816
:1022EC0059683B68DB681A4600F0DAF87B681B68B3
:1022FC006021184600F003F91BE07B6818683B6806
:10230C0059683B68DB681A4600F09CF87B681B68D0
:10231C004021184600F0F3F80BE07B681A683B6824
:10232C001B681946104600F0EAF802E000BF00E016
:10233C0000BF7B68012283F83D207B68002283F874
:10234C003C20002318461037BD4680BD80B483B0B6
:10235C0000AF786000BF0C37BD4680BC704780B4BE
:10236C0083B000AF786000BF0C37BD4680BC7047AF
:10237C0080B483B000AF786000BF0C37BD4680BC22
:10238C00704780B483B000AF786000BF0C37BD4697
:10239C0080BC704780B485B000AF786039607B68D2
:1023AC001B68FB607B68254A934207D07B68B3F1BE
:1023BC00804F03D07B68224A934208D1FB6823F0FC
:1023CC007003FB603B685B68FA681343FB607B68D7
:1023DC001A4A934207D07B68B3F1804F03D07B68D5
:1023EC00174A934208D1FB6823F44073FB603B68A7
:1023FC00DB68FA681343FB60FB6823F080023B68E0
:10240C005B691343FB607B68FA681A603B689A68E7
:10241C007B68DA623B681A687B689A627B68074A59
:10242C00934203D13B681A697B681A637B6801226B
:10243C005A6100BF1437BD4680BC7047002C014068
:10244C000004004080B487B000AFF860B9607A60D7
:10245C00FB681B6A7B61FB681B6A23F00102FB684B
:10246C001A62FB689B693B613B6923F0F0033B619B
:10247C007B681B013A6913433B617B6923F00A03B8
:10248C007B617A69BB6813437B61FB683A699A612B
:10249C00FB687A691A6200BF1C37BD4680BC704766
:1024AC0080B487B000AFF860B9607A60FB681B6AD3
:1024BC0023F01002FB681A62FB689B697B61FB6866
:1024CC001B6A3B617B6923F470437B617B681B0354
:1024DC007A6913437B613B6923F0A0033B61BB68C2
:1024EC001B013A6913433B61FB687A699A61FB688B
:1024FC003A691A6200BF1C37BD4680BC704780B475
:10250C0085B000AF786039607B689B68FB60FB68C6
:10251C0023F07003FB603A68FB68134343F0070336
:10252C00FB607B68FA689A6000BF1437BD4680BCBC
:10253C00704780B487B000AFF860B9607A603B60D8
:10254C00FB689B687B617B6923F47F437B613B6801
:10255C001A027B681A43BB6813437A6913437B6185
:10256C00FB687A699A6000BF1C37BD4680BC704717
:10257C0080B485B000AF786039607B6893F83C30EC
:10258C00012B01D1022341E07B68012283F83C201E
:10259C007B68022283F83D207B681B685B68FB60CC
:1025AC007B681B689B68BB60FB6823F07003FB6057
:1025BC003B681B68FA681343FB607B681B68FA680E
:1025CC005A607B681B68144A934209D07B681B686D
:1025DC00B3F1804F04D07B681B68104A93420CD136
:1025EC00BB6823F08003BB603B685B68BA6813432D
:1025FC00BB607B681B68BA689A607B68012283F8B1
:10260C003D207B68002283F83C20002318461437B9
:10261C00BD4680BC704700BF002C01400004004048
:10262C0080B483B000AF786000BF0C37BD4680BC6F
:10263C00704780B483B000AF786000BF0C37BD46E4
:10264C0080BC704770B500260C4D0D4C641BA4105B
:10265C00A64209D100F022F800260A4D0A4C641B50
:10266C00A410A64205D170BD55F8043B984701361D
:10267C00EEE755F8043B98470136F2E7E0260008F0
:10268C00E0260008E0260008E42600080346024481
:10269C00934200D1704703F8011BF9E7F8B500BF6E
:1026AC00F8BC08BC9E467047F8B500BFF8BC08BC27
:0426BC009E4670477F
:1026C00002030405060708090A0B0C0D0E0F101073
:1026D00000000000000000000102030406070809D2
:0426E00031010008BC
:0426E4000D010008DC
:1026E80001000000010000000100000001000000DE
:1026F80001000000010000000100000001000000CE
:1027080001000000010000000100000001000000BD
:102718002C0100002C0100002C0100000A00000020
:0C2728000024F40010000000010000007C
:0400000508001039A6
:00000001FF
